{
	".git/LegalEscrow.sol": {
		"LegalEscrow": {
			"abi": [
				{
					"inputs": [
						{
							"internalType": "address",
							"name": "_solicitor",
							"type": "address"
						}
					],
					"stateMutability": "nonpayable",
					"type": "constructor"
				},
				{
					"anonymous": false,
					"inputs": [
						{
							"indexed": true,
							"internalType": "address",
							"name": "from",
							"type": "address"
						},
						{
							"indexed": false,
							"internalType": "uint256",
							"name": "value",
							"type": "uint256"
						}
					],
					"name": "Deposited",
					"type": "event"
				},
				{
					"anonymous": false,
					"inputs": [
						{
							"indexed": true,
							"internalType": "address",
							"name": "to",
							"type": "address"
						},
						{
							"indexed": false,
							"internalType": "uint256",
							"name": "value",
							"type": "uint256"
						}
					],
					"name": "Refunded",
					"type": "event"
				},
				{
					"anonymous": false,
					"inputs": [
						{
							"indexed": true,
							"internalType": "address",
							"name": "to",
							"type": "address"
						},
						{
							"indexed": false,
							"internalType": "uint256",
							"name": "value",
							"type": "uint256"
						}
					],
					"name": "Released",
					"type": "event"
				},
				{
					"inputs": [],
					"name": "amount",
					"outputs": [
						{
							"internalType": "uint256",
							"name": "",
							"type": "uint256"
						}
					],
					"stateMutability": "view",
					"type": "function"
				},
				{
					"inputs": [],
					"name": "client",
					"outputs": [
						{
							"internalType": "address",
							"name": "",
							"type": "address"
						}
					],
					"stateMutability": "view",
					"type": "function"
				},
				{
					"inputs": [],
					"name": "contractBalance",
					"outputs": [
						{
							"internalType": "uint256",
							"name": "",
							"type": "uint256"
						}
					],
					"stateMutability": "view",
					"type": "function"
				},
				{
					"inputs": [],
					"name": "deposit",
					"outputs": [],
					"stateMutability": "payable",
					"type": "function"
				},
				{
					"inputs": [],
					"name": "deposited",
					"outputs": [
						{
							"internalType": "bool",
							"name": "",
							"type": "bool"
						}
					],
					"stateMutability": "view",
					"type": "function"
				},
				{
					"inputs": [],
					"name": "refundToClient",
					"outputs": [],
					"stateMutability": "nonpayable",
					"type": "function"
				},
				{
					"inputs": [],
					"name": "refunded",
					"outputs": [
						{
							"internalType": "bool",
							"name": "",
							"type": "bool"
						}
					],
					"stateMutability": "view",
					"type": "function"
				},
				{
					"inputs": [],
					"name": "releaseToSolicitor",
					"outputs": [],
					"stateMutability": "nonpayable",
					"type": "function"
				},
				{
					"inputs": [],
					"name": "released",
					"outputs": [
						{
							"internalType": "bool",
							"name": "",
							"type": "bool"
						}
					],
					"stateMutability": "view",
					"type": "function"
				},
				{
					"inputs": [],
					"name": "solicitor",
					"outputs": [
						{
							"internalType": "address",
							"name": "",
							"type": "address"
						}
					],
					"stateMutability": "view",
					"type": "function"
				}
			],
			"devdoc": {
				"kind": "dev",
				"methods": {},
				"version": 1
			},
			"evm": {
				"assembly": "    /* \".git/LegalEscrow.sol\":61:1765  contract LegalEscrow {... */\n  mstore(0x40, 0x80)\n    /* \".git/LegalEscrow.sol\":435:611  constructor(address _solicitor) {... */\n  callvalue\n  dup1\n  iszero\n  tag_1\n  jumpi\n  0x00\n  dup1\n  revert\ntag_1:\n  pop\n  mload(0x40)\n  sub(codesize, bytecodeSize)\n  dup1\n  bytecodeSize\n  dup4\n  codecopy\n  dup2\n  dup2\n  add\n  0x40\n  mstore\n  dup2\n  add\n  swap1\n  tag_2\n  swap2\n  swap1\n  tag_3\n  jump\t// in\ntag_2:\n    /* \".git/LegalEscrow.sol\":508:509  0 */\n  0x00\n    /* \".git/LegalEscrow.sol\":486:510  _solicitor != address(0) */\n  0xffffffffffffffffffffffffffffffffffffffff\n  and\n    /* \".git/LegalEscrow.sol\":486:496  _solicitor */\n  dup2\n    /* \".git/LegalEscrow.sol\":486:510  _solicitor != address(0) */\n  0xffffffffffffffffffffffffffffffffffffffff\n  and\n  sub\n    /* \".git/LegalEscrow.sol\":478:540  require(_solicitor != address(0), \"Invalid solicitor address\") */\n  tag_6\n  jumpi\n  mload(0x40)\n  0x08c379a000000000000000000000000000000000000000000000000000000000\n  dup2\n  mstore\n  0x04\n  add\n  tag_7\n  swap1\n  tag_8\n  jump\t// in\ntag_7:\n  mload(0x40)\n  dup1\n  swap2\n  sub\n  swap1\n  revert\ntag_6:\n    /* \".git/LegalEscrow.sol\":560:570  msg.sender */\n  caller\n    /* \".git/LegalEscrow.sol\":551:557  client */\n  0x00\n  dup1\n    /* \".git/LegalEscrow.sol\":551:570  client = msg.sender */\n  0x0100\n  exp\n  dup2\n  sload\n  dup2\n  0xffffffffffffffffffffffffffffffffffffffff\n  mul\n  not\n  and\n  swap1\n  dup4\n  0xffffffffffffffffffffffffffffffffffffffff\n  and\n  mul\n  or\n  swap1\n  sstore\n  pop\n    /* \".git/LegalEscrow.sol\":593:603  _solicitor */\n  dup1\n    /* \".git/LegalEscrow.sol\":581:590  solicitor */\n  0x01\n  0x00\n    /* \".git/LegalEscrow.sol\":581:603  solicitor = _solicitor */\n  0x0100\n  exp\n  dup2\n  sload\n  dup2\n  0xffffffffffffffffffffffffffffffffffffffff\n  mul\n  not\n  and\n  swap1\n  dup4\n  0xffffffffffffffffffffffffffffffffffffffff\n  and\n  mul\n  or\n  swap1\n  sstore\n  pop\n    /* \".git/LegalEscrow.sol\":435:611  constructor(address _solicitor) {... */\n  pop\n    /* \".git/LegalEscrow.sol\":61:1765  contract LegalEscrow {... */\n  jump(tag_9)\n    /* \"#utility.yul\":88:205   */\ntag_11:\n    /* \"#utility.yul\":197:198   */\n  0x00\n    /* \"#utility.yul\":194:195   */\n  dup1\n    /* \"#utility.yul\":187:199   */\n  revert\n    /* \"#utility.yul\":334:460   */\ntag_13:\n    /* \"#utility.yul\":371:378   */\n  0x00\n    /* \"#utility.yul\":411:453   */\n  0xffffffffffffffffffffffffffffffffffffffff\n    /* \"#utility.yul\":404:409   */\n  dup3\n    /* \"#utility.yul\":400:454   */\n  and\n    /* \"#utility.yul\":389:454   */\n  swap1\n  pop\n    /* \"#utility.yul\":334:460   */\n  swap2\n  swap1\n  pop\n  jump\t// out\n    /* \"#utility.yul\":466:562   */\ntag_14:\n    /* \"#utility.yul\":503:510   */\n  0x00\n    /* \"#utility.yul\":532:556   */\n  tag_26\n    /* \"#utility.yul\":550:555   */\n  dup3\n    /* \"#utility.yul\":532:556   */\n  tag_13\n  jump\t// in\ntag_26:\n    /* \"#utility.yul\":521:556   */\n  swap1\n  pop\n    /* \"#utility.yul\":466:562   */\n  swap2\n  swap1\n  pop\n  jump\t// out\n    /* \"#utility.yul\":568:690   */\ntag_15:\n    /* \"#utility.yul\":641:665   */\n  tag_28\n    /* \"#utility.yul\":659:664   */\n  dup2\n    /* \"#utility.yul\":641:665   */\n  tag_14\n  jump\t// in\ntag_28:\n    /* \"#utility.yul\":634:639   */\n  dup2\n    /* \"#utility.yul\":631:666   */\n  eq\n    /* \"#utility.yul\":621:684   */\n  tag_29\n  jumpi\n    /* \"#utility.yul\":680:681   */\n  0x00\n    /* \"#utility.yul\":677:678   */\n  dup1\n    /* \"#utility.yul\":670:682   */\n  revert\n    /* \"#utility.yul\":621:684   */\ntag_29:\n    /* \"#utility.yul\":568:690   */\n  pop\n  jump\t// out\n    /* \"#utility.yul\":696:839   */\ntag_16:\n    /* \"#utility.yul\":753:758   */\n  0x00\n    /* \"#utility.yul\":784:790   */\n  dup2\n    /* \"#utility.yul\":778:791   */\n  mload\n    /* \"#utility.yul\":769:791   */\n  swap1\n  pop\n    /* \"#utility.yul\":800:833   */\n  tag_31\n    /* \"#utility.yul\":827:832   */\n  dup2\n    /* \"#utility.yul\":800:833   */\n  tag_15\n  jump\t// in\ntag_31:\n    /* \"#utility.yul\":696:839   */\n  swap3\n  swap2\n  pop\n  pop\n  jump\t// out\n    /* \"#utility.yul\":845:1196   */\ntag_3:\n    /* \"#utility.yul\":915:921   */\n  0x00\n    /* \"#utility.yul\":964:966   */\n  0x20\n    /* \"#utility.yul\":952:961   */\n  dup3\n    /* \"#utility.yul\":943:950   */\n  dup5\n    /* \"#utility.yul\":939:962   */\n  sub\n    /* \"#utility.yul\":935:967   */\n  slt\n    /* \"#utility.yul\":932:1051   */\n  iszero\n  tag_33\n  jumpi\n    /* \"#utility.yul\":970:1049   */\n  tag_34\n  tag_11\n  jump\t// in\ntag_34:\n    /* \"#utility.yul\":932:1051   */\ntag_33:\n    /* \"#utility.yul\":1090:1091   */\n  0x00\n    /* \"#utility.yul\":1115:1179   */\n  tag_35\n    /* \"#utility.yul\":1171:1178   */\n  dup5\n    /* \"#utility.yul\":1162:1168   */\n  dup3\n    /* \"#utility.yul\":1151:1160   */\n  dup6\n    /* \"#utility.yul\":1147:1169   */\n  add\n    /* \"#utility.yul\":1115:1179   */\n  tag_16\n  jump\t// in\ntag_35:\n    /* \"#utility.yul\":1105:1179   */\n  swap2\n  pop\n    /* \"#utility.yul\":1061:1189   */\n  pop\n    /* \"#utility.yul\":845:1196   */\n  swap3\n  swap2\n  pop\n  pop\n  jump\t// out\n    /* \"#utility.yul\":1202:1371   */\ntag_17:\n    /* \"#utility.yul\":1286:1297   */\n  0x00\n    /* \"#utility.yul\":1320:1326   */\n  dup3\n    /* \"#utility.yul\":1315:1318   */\n  dup3\n    /* \"#utility.yul\":1308:1327   */\n  mstore\n    /* \"#utility.yul\":1360:1364   */\n  0x20\n    /* \"#utility.yul\":1355:1358   */\n  dup3\n    /* \"#utility.yul\":1351:1365   */\n  add\n    /* \"#utility.yul\":1336:1365   */\n  swap1\n  pop\n    /* \"#utility.yul\":1202:1371   */\n  swap3\n  swap2\n  pop\n  pop\n  jump\t// out\n    /* \"#utility.yul\":1377:1552   */\ntag_18:\n    /* \"#utility.yul\":1517:1544   */\n  0x496e76616c696420736f6c696369746f72206164647265737300000000000000\n    /* \"#utility.yul\":1513:1514   */\n  0x00\n    /* \"#utility.yul\":1505:1511   */\n  dup3\n    /* \"#utility.yul\":1501:1515   */\n  add\n    /* \"#utility.yul\":1494:1545   */\n  mstore\n    /* \"#utility.yul\":1377:1552   */\n  pop\n  jump\t// out\n    /* \"#utility.yul\":1558:1924   */\ntag_19:\n    /* \"#utility.yul\":1700:1703   */\n  0x00\n    /* \"#utility.yul\":1721:1788   */\n  tag_39\n    /* \"#utility.yul\":1785:1787   */\n  0x19\n    /* \"#utility.yul\":1780:1783   */\n  dup4\n    /* \"#utility.yul\":1721:1788   */\n  tag_17\n  jump\t// in\ntag_39:\n    /* \"#utility.yul\":1714:1788   */\n  swap2\n  pop\n    /* \"#utility.yul\":1797:1890   */\n  tag_40\n    /* \"#utility.yul\":1886:1889   */\n  dup3\n    /* \"#utility.yul\":1797:1890   */\n  tag_18\n  jump\t// in\ntag_40:\n    /* \"#utility.yul\":1915:1917   */\n  0x20\n    /* \"#utility.yul\":1910:1913   */\n  dup3\n    /* \"#utility.yul\":1906:1918   */\n  add\n    /* \"#utility.yul\":1899:1918   */\n  swap1\n  pop\n    /* \"#utility.yul\":1558:1924   */\n  swap2\n  swap1\n  pop\n  jump\t// out\n    /* \"#utility.yul\":1930:2349   */\ntag_8:\n    /* \"#utility.yul\":2096:2100   */\n  0x00\n    /* \"#utility.yul\":2134:2136   */\n  0x20\n    /* \"#utility.yul\":2123:2132   */\n  dup3\n    /* \"#utility.yul\":2119:2137   */\n  add\n    /* \"#utility.yul\":2111:2137   */\n  swap1\n  pop\n    /* \"#utility.yul\":2183:2192   */\n  dup2\n    /* \"#utility.yul\":2177:2181   */\n  dup2\n    /* \"#utility.yul\":2173:2193   */\n  sub\n    /* \"#utility.yul\":2169:2170   */\n  0x00\n    /* \"#utility.yul\":2158:2167   */\n  dup4\n    /* \"#utility.yul\":2154:2171   */\n  add\n    /* \"#utility.yul\":2147:2194   */\n  mstore\n    /* \"#utility.yul\":2211:2342   */\n  tag_42\n    /* \"#utility.yul\":2337:2341   */\n  dup2\n    /* \"#utility.yul\":2211:2342   */\n  tag_19\n  jump\t// in\ntag_42:\n    /* \"#utility.yul\":2203:2342   */\n  swap1\n  pop\n    /* \"#utility.yul\":1930:2349   */\n  swap2\n  swap1\n  pop\n  jump\t// out\n    /* \".git/LegalEscrow.sol\":61:1765  contract LegalEscrow {... */\ntag_9:\n  dataSize(sub_0)\n  dup1\n  dataOffset(sub_0)\n  0x00\n  codecopy\n  0x00\n  return\nstop\n\nsub_0: assembly {\n        /* \".git/LegalEscrow.sol\":61:1765  contract LegalEscrow {... */\n      mstore(0x40, 0x80)\n      jumpi(tag_1, lt(calldatasize, 0x04))\n      shr(0xe0, calldataload(0x00))\n      dup1\n      0xaa8c217c\n      gt\n      tag_12\n      jumpi\n      dup1\n      0xaa8c217c\n      eq\n      tag_7\n      jumpi\n      dup1\n      0xc5a4946e\n      eq\n      tag_8\n      jumpi\n      dup1\n      0xd0e30db0\n      eq\n      tag_9\n      jumpi\n      dup1\n      0xd277adfc\n      eq\n      tag_10\n      jumpi\n      dup1\n      0xeef49ee3\n      eq\n      tag_11\n      jumpi\n      jump(tag_1)\n    tag_12:\n      dup1\n      0x109e94cf\n      eq\n      tag_2\n      jumpi\n      dup1\n      0x12ddbf0e\n      eq\n      tag_3\n      jumpi\n      dup1\n      0x12f53950\n      eq\n      tag_4\n      jumpi\n      dup1\n      0x8b7afe2e\n      eq\n      tag_5\n      jumpi\n      dup1\n      0x96132521\n      eq\n      tag_6\n      jumpi\n    tag_1:\n      0x00\n      dup1\n      revert\n        /* \".git/LegalEscrow.sol\":89:110  address public client */\n    tag_2:\n      callvalue\n      dup1\n      iszero\n      tag_13\n      jumpi\n      0x00\n      dup1\n      revert\n    tag_13:\n      pop\n      tag_14\n      tag_15\n      jump\t// in\n    tag_14:\n      mload(0x40)\n      tag_16\n      swap2\n      swap1\n      tag_17\n      jump\t// in\n    tag_16:\n      mload(0x40)\n      dup1\n      swap2\n      sub\n      swap1\n      return\n        /* \".git/LegalEscrow.sol\":1304:1648  function refundToClient() external {... */\n    tag_3:\n      callvalue\n      dup1\n      iszero\n      tag_18\n      jumpi\n      0x00\n      dup1\n      revert\n    tag_18:\n      pop\n      tag_19\n      tag_20\n      jump\t// in\n    tag_19:\n      stop\n        /* \".git/LegalEscrow.sol\":233:253  bool public refunded */\n    tag_4:\n      callvalue\n      dup1\n      iszero\n      tag_21\n      jumpi\n      0x00\n      dup1\n      revert\n    tag_21:\n      pop\n      tag_22\n      tag_23\n      jump\t// in\n    tag_22:\n      mload(0x40)\n      tag_24\n      swap2\n      swap1\n      tag_25\n      jump\t// in\n    tag_24:\n      mload(0x40)\n      dup1\n      swap2\n      sub\n      swap1\n      return\n        /* \".git/LegalEscrow.sol\":1656:1762  function contractBalance() external view returns (uint256) {... */\n    tag_5:\n      callvalue\n      dup1\n      iszero\n      tag_26\n      jumpi\n      0x00\n      dup1\n      revert\n    tag_26:\n      pop\n      tag_27\n      tag_28\n      jump\t// in\n    tag_27:\n      mload(0x40)\n      tag_29\n      swap2\n      swap1\n      tag_30\n      jump\t// in\n    tag_29:\n      mload(0x40)\n      dup1\n      swap2\n      sub\n      swap1\n      return\n        /* \".git/LegalEscrow.sol\":206:226  bool public released */\n    tag_6:\n      callvalue\n      dup1\n      iszero\n      tag_31\n      jumpi\n      0x00\n      dup1\n      revert\n    tag_31:\n      pop\n      tag_32\n      tag_33\n      jump\t// in\n    tag_32:\n      mload(0x40)\n      tag_34\n      swap2\n      swap1\n      tag_25\n      jump\t// in\n    tag_34:\n      mload(0x40)\n      dup1\n      swap2\n      sub\n      swap1\n      return\n        /* \".git/LegalEscrow.sol\":150:171  uint256 public amount */\n    tag_7:\n      callvalue\n      dup1\n      iszero\n      tag_35\n      jumpi\n      0x00\n      dup1\n      revert\n    tag_35:\n      pop\n      tag_36\n      tag_37\n      jump\t// in\n    tag_36:\n      mload(0x40)\n      tag_38\n      swap2\n      swap1\n      tag_30\n      jump\t// in\n    tag_38:\n      mload(0x40)\n      dup1\n      swap2\n      sub\n      swap1\n      return\n        /* \".git/LegalEscrow.sol\":117:141  address public solicitor */\n    tag_8:\n      callvalue\n      dup1\n      iszero\n      tag_39\n      jumpi\n      0x00\n      dup1\n      revert\n    tag_39:\n      pop\n      tag_40\n      tag_41\n      jump\t// in\n    tag_40:\n      mload(0x40)\n      tag_42\n      swap2\n      swap1\n      tag_17\n      jump\t// in\n    tag_42:\n      mload(0x40)\n      dup1\n      swap2\n      sub\n      swap1\n      return\n        /* \".git/LegalEscrow.sol\":619:939  function deposit() external payable {... */\n    tag_9:\n      tag_43\n      tag_44\n      jump\t// in\n    tag_43:\n      stop\n        /* \".git/LegalEscrow.sol\":947:1296  function releaseToSolicitor() external {... */\n    tag_10:\n      callvalue\n      dup1\n      iszero\n      tag_45\n      jumpi\n      0x00\n      dup1\n      revert\n    tag_45:\n      pop\n      tag_46\n      tag_47\n      jump\t// in\n    tag_46:\n      stop\n        /* \".git/LegalEscrow.sol\":178:199  bool public deposited */\n    tag_11:\n      callvalue\n      dup1\n      iszero\n      tag_48\n      jumpi\n      0x00\n      dup1\n      revert\n    tag_48:\n      pop\n      tag_49\n      tag_50\n      jump\t// in\n    tag_49:\n      mload(0x40)\n      tag_51\n      swap2\n      swap1\n      tag_25\n      jump\t// in\n    tag_51:\n      mload(0x40)\n      dup1\n      swap2\n      sub\n      swap1\n      return\n        /* \".git/LegalEscrow.sol\":89:110  address public client */\n    tag_15:\n      0x00\n      dup1\n      sload\n      swap1\n      0x0100\n      exp\n      swap1\n      div\n      0xffffffffffffffffffffffffffffffffffffffff\n      and\n      dup2\n      jump\t// out\n        /* \".git/LegalEscrow.sol\":1304:1648  function refundToClient() external {... */\n    tag_20:\n        /* \".git/LegalEscrow.sol\":1372:1381  solicitor */\n      0x01\n      0x00\n      swap1\n      sload\n      swap1\n      0x0100\n      exp\n      swap1\n      div\n      0xffffffffffffffffffffffffffffffffffffffff\n      and\n        /* \".git/LegalEscrow.sol\":1358:1381  msg.sender == solicitor */\n      0xffffffffffffffffffffffffffffffffffffffff\n      and\n        /* \".git/LegalEscrow.sol\":1358:1368  msg.sender */\n      caller\n        /* \".git/LegalEscrow.sol\":1358:1381  msg.sender == solicitor */\n      0xffffffffffffffffffffffffffffffffffffffff\n      and\n      eq\n        /* \".git/LegalEscrow.sol\":1350:1411  require(msg.sender == solicitor, \"Only solicitor can refund\") */\n      tag_53\n      jumpi\n      mload(0x40)\n      0x08c379a000000000000000000000000000000000000000000000000000000000\n      dup2\n      mstore\n      0x04\n      add\n      tag_54\n      swap1\n      tag_55\n      jump\t// in\n    tag_54:\n      mload(0x40)\n      dup1\n      swap2\n      sub\n      swap1\n      revert\n    tag_53:\n        /* \".git/LegalEscrow.sol\":1430:1439  deposited */\n      0x03\n      0x00\n      swap1\n      sload\n      swap1\n      0x0100\n      exp\n      swap1\n      div\n      0xff\n      and\n        /* \".git/LegalEscrow.sol\":1422:1459  require(deposited, \"No deposit made\") */\n      tag_56\n      jumpi\n      mload(0x40)\n      0x08c379a000000000000000000000000000000000000000000000000000000000\n      dup2\n      mstore\n      0x04\n      add\n      tag_57\n      swap1\n      tag_58\n      jump\t// in\n    tag_57:\n      mload(0x40)\n      dup1\n      swap2\n      sub\n      swap1\n      revert\n    tag_56:\n        /* \".git/LegalEscrow.sol\":1479:1487  released */\n      0x03\n      0x01\n      swap1\n      sload\n      swap1\n      0x0100\n      exp\n      swap1\n      div\n      0xff\n      and\n        /* \".git/LegalEscrow.sol\":1478:1487  !released */\n      iszero\n        /* \".git/LegalEscrow.sol\":1478:1500  !released && !refunded */\n      dup1\n      iszero\n      tag_59\n      jumpi\n      pop\n        /* \".git/LegalEscrow.sol\":1492:1500  refunded */\n      0x03\n      0x02\n      swap1\n      sload\n      swap1\n      0x0100\n      exp\n      swap1\n      div\n      0xff\n      and\n        /* \".git/LegalEscrow.sol\":1491:1500  !refunded */\n      iszero\n        /* \".git/LegalEscrow.sol\":1478:1500  !released && !refunded */\n    tag_59:\n        /* \".git/LegalEscrow.sol\":1470:1529  require(!released && !refunded, \"Escrow already completed\") */\n      tag_60\n      jumpi\n      mload(0x40)\n      0x08c379a000000000000000000000000000000000000000000000000000000000\n      dup2\n      mstore\n      0x04\n      add\n      tag_61\n      swap1\n      tag_62\n      jump\t// in\n    tag_61:\n      mload(0x40)\n      dup1\n      swap2\n      sub\n      swap1\n      revert\n    tag_60:\n        /* \".git/LegalEscrow.sol\":1553:1557  true */\n      0x01\n        /* \".git/LegalEscrow.sol\":1542:1550  refunded */\n      0x03\n      0x02\n        /* \".git/LegalEscrow.sol\":1542:1557  refunded = true */\n      0x0100\n      exp\n      dup2\n      sload\n      dup2\n      0xff\n      mul\n      not\n      and\n      swap1\n      dup4\n      iszero\n      iszero\n      mul\n      or\n      swap1\n      sstore\n      pop\n        /* \".git/LegalEscrow.sol\":1582:1588  client */\n      0x00\n      dup1\n      sload\n      swap1\n      0x0100\n      exp\n      swap1\n      div\n      0xffffffffffffffffffffffffffffffffffffffff\n      and\n        /* \".git/LegalEscrow.sol\":1573:1597  Refunded(client, amount) */\n      0xffffffffffffffffffffffffffffffffffffffff\n      and\n      0xd7dee2702d63ad89917b6a4da9981c90c4d24f8c2bdfd64c604ecae57d8d0651\n        /* \".git/LegalEscrow.sol\":1590:1596  amount */\n      sload(0x02)\n        /* \".git/LegalEscrow.sol\":1573:1597  Refunded(client, amount) */\n      mload(0x40)\n      tag_63\n      swap2\n      swap1\n      tag_30\n      jump\t// in\n    tag_63:\n      mload(0x40)\n      dup1\n      swap2\n      sub\n      swap1\n      log2\n        /* \".git/LegalEscrow.sol\":1616:1622  client */\n      0x00\n      dup1\n      sload\n      swap1\n      0x0100\n      exp\n      swap1\n      div\n      0xffffffffffffffffffffffffffffffffffffffff\n      and\n        /* \".git/LegalEscrow.sol\":1608:1632  payable(client).transfer */\n      0xffffffffffffffffffffffffffffffffffffffff\n      and\n        /* \".git/LegalEscrow.sol\":1608:1640  payable(client).transfer(amount) */\n      0x08fc\n        /* \".git/LegalEscrow.sol\":1633:1639  amount */\n      sload(0x02)\n        /* \".git/LegalEscrow.sol\":1608:1640  payable(client).transfer(amount) */\n      swap1\n      dup2\n      iszero\n      mul\n      swap1\n      mload(0x40)\n      0x00\n      mload(0x40)\n      dup1\n      dup4\n      sub\n      dup2\n      dup6\n      dup9\n      dup9\n      call\n      swap4\n      pop\n      pop\n      pop\n      pop\n      iszero\n      dup1\n      iszero\n      tag_65\n      jumpi\n      returndatasize\n      0x00\n      dup1\n      returndatacopy\n      revert(0x00, returndatasize)\n    tag_65:\n      pop\n        /* \".git/LegalEscrow.sol\":1304:1648  function refundToClient() external {... */\n      jump\t// out\n        /* \".git/LegalEscrow.sol\":233:253  bool public refunded */\n    tag_23:\n      0x03\n      0x02\n      swap1\n      sload\n      swap1\n      0x0100\n      exp\n      swap1\n      div\n      0xff\n      and\n      dup2\n      jump\t// out\n        /* \".git/LegalEscrow.sol\":1656:1762  function contractBalance() external view returns (uint256) {... */\n    tag_28:\n        /* \".git/LegalEscrow.sol\":1706:1713  uint256 */\n      0x00\n        /* \".git/LegalEscrow.sol\":1733:1754  address(this).balance */\n      selfbalance\n        /* \".git/LegalEscrow.sol\":1726:1754  return address(this).balance */\n      swap1\n      pop\n        /* \".git/LegalEscrow.sol\":1656:1762  function contractBalance() external view returns (uint256) {... */\n      swap1\n      jump\t// out\n        /* \".git/LegalEscrow.sol\":206:226  bool public released */\n    tag_33:\n      0x03\n      0x01\n      swap1\n      sload\n      swap1\n      0x0100\n      exp\n      swap1\n      div\n      0xff\n      and\n      dup2\n      jump\t// out\n        /* \".git/LegalEscrow.sol\":150:171  uint256 public amount */\n    tag_37:\n      sload(0x02)\n      dup2\n      jump\t// out\n        /* \".git/LegalEscrow.sol\":117:141  address public solicitor */\n    tag_41:\n      0x01\n      0x00\n      swap1\n      sload\n      swap1\n      0x0100\n      exp\n      swap1\n      div\n      0xffffffffffffffffffffffffffffffffffffffff\n      and\n      dup2\n      jump\t// out\n        /* \".git/LegalEscrow.sol\":619:939  function deposit() external payable {... */\n    tag_44:\n        /* \".git/LegalEscrow.sol\":688:694  client */\n      0x00\n      dup1\n      sload\n      swap1\n      0x0100\n      exp\n      swap1\n      div\n      0xffffffffffffffffffffffffffffffffffffffff\n      and\n        /* \".git/LegalEscrow.sol\":674:694  msg.sender == client */\n      0xffffffffffffffffffffffffffffffffffffffff\n      and\n        /* \".git/LegalEscrow.sol\":674:684  msg.sender */\n      caller\n        /* \".git/LegalEscrow.sol\":674:694  msg.sender == client */\n      0xffffffffffffffffffffffffffffffffffffffff\n      and\n      eq\n        /* \".git/LegalEscrow.sol\":666:722  require(msg.sender == client, \"Only client can deposit\") */\n      tag_68\n      jumpi\n      mload(0x40)\n      0x08c379a000000000000000000000000000000000000000000000000000000000\n      dup2\n      mstore\n      0x04\n      add\n      tag_69\n      swap1\n      tag_70\n      jump\t// in\n    tag_69:\n      mload(0x40)\n      dup1\n      swap2\n      sub\n      swap1\n      revert\n    tag_68:\n        /* \".git/LegalEscrow.sol\":742:751  deposited */\n      0x03\n      0x00\n      swap1\n      sload\n      swap1\n      0x0100\n      exp\n      swap1\n      div\n      0xff\n      and\n        /* \".git/LegalEscrow.sol\":741:751  !deposited */\n      iszero\n        /* \".git/LegalEscrow.sol\":733:773  require(!deposited, \"Already deposited\") */\n      tag_71\n      jumpi\n      mload(0x40)\n      0x08c379a000000000000000000000000000000000000000000000000000000000\n      dup2\n      mstore\n      0x04\n      add\n      tag_72\n      swap1\n      tag_73\n      jump\t// in\n    tag_72:\n      mload(0x40)\n      dup1\n      swap2\n      sub\n      swap1\n      revert\n    tag_71:\n        /* \".git/LegalEscrow.sol\":804:805  0 */\n      0x00\n        /* \".git/LegalEscrow.sol\":792:801  msg.value */\n      callvalue\n        /* \".git/LegalEscrow.sol\":792:805  msg.value > 0 */\n      gt\n        /* \".git/LegalEscrow.sol\":784:823  require(msg.value > 0, \"Must send ETH\") */\n      tag_74\n      jumpi\n      mload(0x40)\n      0x08c379a000000000000000000000000000000000000000000000000000000000\n      dup2\n      mstore\n      0x04\n      add\n      tag_75\n      swap1\n      tag_76\n      jump\t// in\n    tag_75:\n      mload(0x40)\n      dup1\n      swap2\n      sub\n      swap1\n      revert\n    tag_74:\n        /* \".git/LegalEscrow.sol\":845:854  msg.value */\n      callvalue\n        /* \".git/LegalEscrow.sol\":836:842  amount */\n      0x02\n        /* \".git/LegalEscrow.sol\":836:854  amount = msg.value */\n      dup2\n      swap1\n      sstore\n      pop\n        /* \".git/LegalEscrow.sol\":877:881  true */\n      0x01\n        /* \".git/LegalEscrow.sol\":865:874  deposited */\n      0x03\n      0x00\n        /* \".git/LegalEscrow.sol\":865:881  deposited = true */\n      0x0100\n      exp\n      dup2\n      sload\n      dup2\n      0xff\n      mul\n      not\n      and\n      swap1\n      dup4\n      iszero\n      iszero\n      mul\n      or\n      swap1\n      sstore\n      pop\n        /* \".git/LegalEscrow.sol\":909:919  msg.sender */\n      caller\n        /* \".git/LegalEscrow.sol\":899:931  Deposited(msg.sender, msg.value) */\n      0xffffffffffffffffffffffffffffffffffffffff\n      and\n      0x2da466a7b24304f47e87fa2e1e5a81b9831ce54fec19055ce277ca2f39ba42c4\n        /* \".git/LegalEscrow.sol\":921:930  msg.value */\n      callvalue\n        /* \".git/LegalEscrow.sol\":899:931  Deposited(msg.sender, msg.value) */\n      mload(0x40)\n      tag_77\n      swap2\n      swap1\n      tag_30\n      jump\t// in\n    tag_77:\n      mload(0x40)\n      dup1\n      swap2\n      sub\n      swap1\n      log2\n        /* \".git/LegalEscrow.sol\":619:939  function deposit() external payable {... */\n      jump\t// out\n        /* \".git/LegalEscrow.sol\":947:1296  function releaseToSolicitor() external {... */\n    tag_47:\n        /* \".git/LegalEscrow.sol\":1019:1025  client */\n      0x00\n      dup1\n      sload\n      swap1\n      0x0100\n      exp\n      swap1\n      div\n      0xffffffffffffffffffffffffffffffffffffffff\n      and\n        /* \".git/LegalEscrow.sol\":1005:1025  msg.sender == client */\n      0xffffffffffffffffffffffffffffffffffffffff\n      and\n        /* \".git/LegalEscrow.sol\":1005:1015  msg.sender */\n      caller\n        /* \".git/LegalEscrow.sol\":1005:1025  msg.sender == client */\n      0xffffffffffffffffffffffffffffffffffffffff\n      and\n      eq\n        /* \".git/LegalEscrow.sol\":997:1053  require(msg.sender == client, \"Only client can release\") */\n      tag_79\n      jumpi\n      mload(0x40)\n      0x08c379a000000000000000000000000000000000000000000000000000000000\n      dup2\n      mstore\n      0x04\n      add\n      tag_80\n      swap1\n      tag_81\n      jump\t// in\n    tag_80:\n      mload(0x40)\n      dup1\n      swap2\n      sub\n      swap1\n      revert\n    tag_79:\n        /* \".git/LegalEscrow.sol\":1072:1081  deposited */\n      0x03\n      0x00\n      swap1\n      sload\n      swap1\n      0x0100\n      exp\n      swap1\n      div\n      0xff\n      and\n        /* \".git/LegalEscrow.sol\":1064:1101  require(deposited, \"No deposit made\") */\n      tag_82\n      jumpi\n      mload(0x40)\n      0x08c379a000000000000000000000000000000000000000000000000000000000\n      dup2\n      mstore\n      0x04\n      add\n      tag_83\n      swap1\n      tag_58\n      jump\t// in\n    tag_83:\n      mload(0x40)\n      dup1\n      swap2\n      sub\n      swap1\n      revert\n    tag_82:\n        /* \".git/LegalEscrow.sol\":1121:1129  released */\n      0x03\n      0x01\n      swap1\n      sload\n      swap1\n      0x0100\n      exp\n      swap1\n      div\n      0xff\n      and\n        /* \".git/LegalEscrow.sol\":1120:1129  !released */\n      iszero\n        /* \".git/LegalEscrow.sol\":1120:1142  !released && !refunded */\n      dup1\n      iszero\n      tag_84\n      jumpi\n      pop\n        /* \".git/LegalEscrow.sol\":1134:1142  refunded */\n      0x03\n      0x02\n      swap1\n      sload\n      swap1\n      0x0100\n      exp\n      swap1\n      div\n      0xff\n      and\n        /* \".git/LegalEscrow.sol\":1133:1142  !refunded */\n      iszero\n        /* \".git/LegalEscrow.sol\":1120:1142  !released && !refunded */\n    tag_84:\n        /* \".git/LegalEscrow.sol\":1112:1171  require(!released && !refunded, \"Escrow already completed\") */\n      tag_85\n      jumpi\n      mload(0x40)\n      0x08c379a000000000000000000000000000000000000000000000000000000000\n      dup2\n      mstore\n      0x04\n      add\n      tag_86\n      swap1\n      tag_62\n      jump\t// in\n    tag_86:\n      mload(0x40)\n      dup1\n      swap2\n      sub\n      swap1\n      revert\n    tag_85:\n        /* \".git/LegalEscrow.sol\":1195:1199  true */\n      0x01\n        /* \".git/LegalEscrow.sol\":1184:1192  released */\n      0x03\n      0x01\n        /* \".git/LegalEscrow.sol\":1184:1199  released = true */\n      0x0100\n      exp\n      dup2\n      sload\n      dup2\n      0xff\n      mul\n      not\n      and\n      swap1\n      dup4\n      iszero\n      iszero\n      mul\n      or\n      swap1\n      sstore\n      pop\n        /* \".git/LegalEscrow.sol\":1224:1233  solicitor */\n      0x01\n      0x00\n      swap1\n      sload\n      swap1\n      0x0100\n      exp\n      swap1\n      div\n      0xffffffffffffffffffffffffffffffffffffffff\n      and\n        /* \".git/LegalEscrow.sol\":1215:1242  Released(solicitor, amount) */\n      0xffffffffffffffffffffffffffffffffffffffff\n      and\n      0xb21fb52d5749b80f3182f8c6992236b5e5576681880914484d7f4c9b062e619e\n        /* \".git/LegalEscrow.sol\":1235:1241  amount */\n      sload(0x02)\n        /* \".git/LegalEscrow.sol\":1215:1242  Released(solicitor, amount) */\n      mload(0x40)\n      tag_87\n      swap2\n      swap1\n      tag_30\n      jump\t// in\n    tag_87:\n      mload(0x40)\n      dup1\n      swap2\n      sub\n      swap1\n      log2\n        /* \".git/LegalEscrow.sol\":1261:1270  solicitor */\n      0x01\n      0x00\n      swap1\n      sload\n      swap1\n      0x0100\n      exp\n      swap1\n      div\n      0xffffffffffffffffffffffffffffffffffffffff\n      and\n        /* \".git/LegalEscrow.sol\":1253:1280  payable(solicitor).transfer */\n      0xffffffffffffffffffffffffffffffffffffffff\n      and\n        /* \".git/LegalEscrow.sol\":1253:1288  payable(solicitor).transfer(amount) */\n      0x08fc\n        /* \".git/LegalEscrow.sol\":1281:1287  amount */\n      sload(0x02)\n        /* \".git/LegalEscrow.sol\":1253:1288  payable(solicitor).transfer(amount) */\n      swap1\n      dup2\n      iszero\n      mul\n      swap1\n      mload(0x40)\n      0x00\n      mload(0x40)\n      dup1\n      dup4\n      sub\n      dup2\n      dup6\n      dup9\n      dup9\n      call\n      swap4\n      pop\n      pop\n      pop\n      pop\n      iszero\n      dup1\n      iszero\n      tag_89\n      jumpi\n      returndatasize\n      0x00\n      dup1\n      returndatacopy\n      revert(0x00, returndatasize)\n    tag_89:\n      pop\n        /* \".git/LegalEscrow.sol\":947:1296  function releaseToSolicitor() external {... */\n      jump\t// out\n        /* \".git/LegalEscrow.sol\":178:199  bool public deposited */\n    tag_50:\n      0x03\n      0x00\n      swap1\n      sload\n      swap1\n      0x0100\n      exp\n      swap1\n      div\n      0xff\n      and\n      dup2\n      jump\t// out\n        /* \"#utility.yul\":7:133   */\n    tag_90:\n        /* \"#utility.yul\":44:51   */\n      0x00\n        /* \"#utility.yul\":84:126   */\n      0xffffffffffffffffffffffffffffffffffffffff\n        /* \"#utility.yul\":77:82   */\n      dup3\n        /* \"#utility.yul\":73:127   */\n      and\n        /* \"#utility.yul\":62:127   */\n      swap1\n      pop\n        /* \"#utility.yul\":7:133   */\n      swap2\n      swap1\n      pop\n      jump\t// out\n        /* \"#utility.yul\":139:235   */\n    tag_91:\n        /* \"#utility.yul\":176:183   */\n      0x00\n        /* \"#utility.yul\":205:229   */\n      tag_115\n        /* \"#utility.yul\":223:228   */\n      dup3\n        /* \"#utility.yul\":205:229   */\n      tag_90\n      jump\t// in\n    tag_115:\n        /* \"#utility.yul\":194:229   */\n      swap1\n      pop\n        /* \"#utility.yul\":139:235   */\n      swap2\n      swap1\n      pop\n      jump\t// out\n        /* \"#utility.yul\":241:359   */\n    tag_92:\n        /* \"#utility.yul\":328:352   */\n      tag_117\n        /* \"#utility.yul\":346:351   */\n      dup2\n        /* \"#utility.yul\":328:352   */\n      tag_91\n      jump\t// in\n    tag_117:\n        /* \"#utility.yul\":323:326   */\n      dup3\n        /* \"#utility.yul\":316:353   */\n      mstore\n        /* \"#utility.yul\":241:359   */\n      pop\n      pop\n      jump\t// out\n        /* \"#utility.yul\":365:587   */\n    tag_17:\n        /* \"#utility.yul\":458:462   */\n      0x00\n        /* \"#utility.yul\":496:498   */\n      0x20\n        /* \"#utility.yul\":485:494   */\n      dup3\n        /* \"#utility.yul\":481:499   */\n      add\n        /* \"#utility.yul\":473:499   */\n      swap1\n      pop\n        /* \"#utility.yul\":509:580   */\n      tag_119\n        /* \"#utility.yul\":577:578   */\n      0x00\n        /* \"#utility.yul\":566:575   */\n      dup4\n        /* \"#utility.yul\":562:579   */\n      add\n        /* \"#utility.yul\":553:559   */\n      dup5\n        /* \"#utility.yul\":509:580   */\n      tag_92\n      jump\t// in\n    tag_119:\n        /* \"#utility.yul\":365:587   */\n      swap3\n      swap2\n      pop\n      pop\n      jump\t// out\n        /* \"#utility.yul\":593:683   */\n    tag_93:\n        /* \"#utility.yul\":627:634   */\n      0x00\n        /* \"#utility.yul\":670:675   */\n      dup2\n        /* \"#utility.yul\":663:676   */\n      iszero\n        /* \"#utility.yul\":656:677   */\n      iszero\n        /* \"#utility.yul\":645:677   */\n      swap1\n      pop\n        /* \"#utility.yul\":593:683   */\n      swap2\n      swap1\n      pop\n      jump\t// out\n        /* \"#utility.yul\":689:798   */\n    tag_94:\n        /* \"#utility.yul\":770:791   */\n      tag_122\n        /* \"#utility.yul\":785:790   */\n      dup2\n        /* \"#utility.yul\":770:791   */\n      tag_93\n      jump\t// in\n    tag_122:\n        /* \"#utility.yul\":765:768   */\n      dup3\n        /* \"#utility.yul\":758:792   */\n      mstore\n        /* \"#utility.yul\":689:798   */\n      pop\n      pop\n      jump\t// out\n        /* \"#utility.yul\":804:1014   */\n    tag_25:\n        /* \"#utility.yul\":891:895   */\n      0x00\n        /* \"#utility.yul\":929:931   */\n      0x20\n        /* \"#utility.yul\":918:927   */\n      dup3\n        /* \"#utility.yul\":914:932   */\n      add\n        /* \"#utility.yul\":906:932   */\n      swap1\n      pop\n        /* \"#utility.yul\":942:1007   */\n      tag_124\n        /* \"#utility.yul\":1004:1005   */\n      0x00\n        /* \"#utility.yul\":993:1002   */\n      dup4\n        /* \"#utility.yul\":989:1006   */\n      add\n        /* \"#utility.yul\":980:986   */\n      dup5\n        /* \"#utility.yul\":942:1007   */\n      tag_94\n      jump\t// in\n    tag_124:\n        /* \"#utility.yul\":804:1014   */\n      swap3\n      swap2\n      pop\n      pop\n      jump\t// out\n        /* \"#utility.yul\":1020:1097   */\n    tag_95:\n        /* \"#utility.yul\":1057:1064   */\n      0x00\n        /* \"#utility.yul\":1086:1091   */\n      dup2\n        /* \"#utility.yul\":1075:1091   */\n      swap1\n      pop\n        /* \"#utility.yul\":1020:1097   */\n      swap2\n      swap1\n      pop\n      jump\t// out\n        /* \"#utility.yul\":1103:1221   */\n    tag_96:\n        /* \"#utility.yul\":1190:1214   */\n      tag_127\n        /* \"#utility.yul\":1208:1213   */\n      dup2\n        /* \"#utility.yul\":1190:1214   */\n      tag_95\n      jump\t// in\n    tag_127:\n        /* \"#utility.yul\":1185:1188   */\n      dup3\n        /* \"#utility.yul\":1178:1215   */\n      mstore\n        /* \"#utility.yul\":1103:1221   */\n      pop\n      pop\n      jump\t// out\n        /* \"#utility.yul\":1227:1449   */\n    tag_30:\n        /* \"#utility.yul\":1320:1324   */\n      0x00\n        /* \"#utility.yul\":1358:1360   */\n      0x20\n        /* \"#utility.yul\":1347:1356   */\n      dup3\n        /* \"#utility.yul\":1343:1361   */\n      add\n        /* \"#utility.yul\":1335:1361   */\n      swap1\n      pop\n        /* \"#utility.yul\":1371:1442   */\n      tag_129\n        /* \"#utility.yul\":1439:1440   */\n      0x00\n        /* \"#utility.yul\":1428:1437   */\n      dup4\n        /* \"#utility.yul\":1424:1441   */\n      add\n        /* \"#utility.yul\":1415:1421   */\n      dup5\n        /* \"#utility.yul\":1371:1442   */\n      tag_96\n      jump\t// in\n    tag_129:\n        /* \"#utility.yul\":1227:1449   */\n      swap3\n      swap2\n      pop\n      pop\n      jump\t// out\n        /* \"#utility.yul\":1455:1624   */\n    tag_97:\n        /* \"#utility.yul\":1539:1550   */\n      0x00\n        /* \"#utility.yul\":1573:1579   */\n      dup3\n        /* \"#utility.yul\":1568:1571   */\n      dup3\n        /* \"#utility.yul\":1561:1580   */\n      mstore\n        /* \"#utility.yul\":1613:1617   */\n      0x20\n        /* \"#utility.yul\":1608:1611   */\n      dup3\n        /* \"#utility.yul\":1604:1618   */\n      add\n        /* \"#utility.yul\":1589:1618   */\n      swap1\n      pop\n        /* \"#utility.yul\":1455:1624   */\n      swap3\n      swap2\n      pop\n      pop\n      jump\t// out\n        /* \"#utility.yul\":1630:1805   */\n    tag_98:\n        /* \"#utility.yul\":1770:1797   */\n      0x4f6e6c7920736f6c696369746f722063616e20726566756e6400000000000000\n        /* \"#utility.yul\":1766:1767   */\n      0x00\n        /* \"#utility.yul\":1758:1764   */\n      dup3\n        /* \"#utility.yul\":1754:1768   */\n      add\n        /* \"#utility.yul\":1747:1798   */\n      mstore\n        /* \"#utility.yul\":1630:1805   */\n      pop\n      jump\t// out\n        /* \"#utility.yul\":1811:2177   */\n    tag_99:\n        /* \"#utility.yul\":1953:1956   */\n      0x00\n        /* \"#utility.yul\":1974:2041   */\n      tag_133\n        /* \"#utility.yul\":2038:2040   */\n      0x19\n        /* \"#utility.yul\":2033:2036   */\n      dup4\n        /* \"#utility.yul\":1974:2041   */\n      tag_97\n      jump\t// in\n    tag_133:\n        /* \"#utility.yul\":1967:2041   */\n      swap2\n      pop\n        /* \"#utility.yul\":2050:2143   */\n      tag_134\n        /* \"#utility.yul\":2139:2142   */\n      dup3\n        /* \"#utility.yul\":2050:2143   */\n      tag_98\n      jump\t// in\n    tag_134:\n        /* \"#utility.yul\":2168:2170   */\n      0x20\n        /* \"#utility.yul\":2163:2166   */\n      dup3\n        /* \"#utility.yul\":2159:2171   */\n      add\n        /* \"#utility.yul\":2152:2171   */\n      swap1\n      pop\n        /* \"#utility.yul\":1811:2177   */\n      swap2\n      swap1\n      pop\n      jump\t// out\n        /* \"#utility.yul\":2183:2602   */\n    tag_55:\n        /* \"#utility.yul\":2349:2353   */\n      0x00\n        /* \"#utility.yul\":2387:2389   */\n      0x20\n        /* \"#utility.yul\":2376:2385   */\n      dup3\n        /* \"#utility.yul\":2372:2390   */\n      add\n        /* \"#utility.yul\":2364:2390   */\n      swap1\n      pop\n        /* \"#utility.yul\":2436:2445   */\n      dup2\n        /* \"#utility.yul\":2430:2434   */\n      dup2\n        /* \"#utility.yul\":2426:2446   */\n      sub\n        /* \"#utility.yul\":2422:2423   */\n      0x00\n        /* \"#utility.yul\":2411:2420   */\n      dup4\n        /* \"#utility.yul\":2407:2424   */\n      add\n        /* \"#utility.yul\":2400:2447   */\n      mstore\n        /* \"#utility.yul\":2464:2595   */\n      tag_136\n        /* \"#utility.yul\":2590:2594   */\n      dup2\n        /* \"#utility.yul\":2464:2595   */\n      tag_99\n      jump\t// in\n    tag_136:\n        /* \"#utility.yul\":2456:2595   */\n      swap1\n      pop\n        /* \"#utility.yul\":2183:2602   */\n      swap2\n      swap1\n      pop\n      jump\t// out\n        /* \"#utility.yul\":2608:2773   */\n    tag_100:\n        /* \"#utility.yul\":2748:2765   */\n      0x4e6f206465706f736974206d6164650000000000000000000000000000000000\n        /* \"#utility.yul\":2744:2745   */\n      0x00\n        /* \"#utility.yul\":2736:2742   */\n      dup3\n        /* \"#utility.yul\":2732:2746   */\n      add\n        /* \"#utility.yul\":2725:2766   */\n      mstore\n        /* \"#utility.yul\":2608:2773   */\n      pop\n      jump\t// out\n        /* \"#utility.yul\":2779:3145   */\n    tag_101:\n        /* \"#utility.yul\":2921:2924   */\n      0x00\n        /* \"#utility.yul\":2942:3009   */\n      tag_139\n        /* \"#utility.yul\":3006:3008   */\n      0x0f\n        /* \"#utility.yul\":3001:3004   */\n      dup4\n        /* \"#utility.yul\":2942:3009   */\n      tag_97\n      jump\t// in\n    tag_139:\n        /* \"#utility.yul\":2935:3009   */\n      swap2\n      pop\n        /* \"#utility.yul\":3018:3111   */\n      tag_140\n        /* \"#utility.yul\":3107:3110   */\n      dup3\n        /* \"#utility.yul\":3018:3111   */\n      tag_100\n      jump\t// in\n    tag_140:\n        /* \"#utility.yul\":3136:3138   */\n      0x20\n        /* \"#utility.yul\":3131:3134   */\n      dup3\n        /* \"#utility.yul\":3127:3139   */\n      add\n        /* \"#utility.yul\":3120:3139   */\n      swap1\n      pop\n        /* \"#utility.yul\":2779:3145   */\n      swap2\n      swap1\n      pop\n      jump\t// out\n        /* \"#utility.yul\":3151:3570   */\n    tag_58:\n        /* \"#utility.yul\":3317:3321   */\n      0x00\n        /* \"#utility.yul\":3355:3357   */\n      0x20\n        /* \"#utility.yul\":3344:3353   */\n      dup3\n        /* \"#utility.yul\":3340:3358   */\n      add\n        /* \"#utility.yul\":3332:3358   */\n      swap1\n      pop\n        /* \"#utility.yul\":3404:3413   */\n      dup2\n        /* \"#utility.yul\":3398:3402   */\n      dup2\n        /* \"#utility.yul\":3394:3414   */\n      sub\n        /* \"#utility.yul\":3390:3391   */\n      0x00\n        /* \"#utility.yul\":3379:3388   */\n      dup4\n        /* \"#utility.yul\":3375:3392   */\n      add\n        /* \"#utility.yul\":3368:3415   */\n      mstore\n        /* \"#utility.yul\":3432:3563   */\n      tag_142\n        /* \"#utility.yul\":3558:3562   */\n      dup2\n        /* \"#utility.yul\":3432:3563   */\n      tag_101\n      jump\t// in\n    tag_142:\n        /* \"#utility.yul\":3424:3563   */\n      swap1\n      pop\n        /* \"#utility.yul\":3151:3570   */\n      swap2\n      swap1\n      pop\n      jump\t// out\n        /* \"#utility.yul\":3576:3750   */\n    tag_102:\n        /* \"#utility.yul\":3716:3742   */\n      0x457363726f7720616c726561647920636f6d706c657465640000000000000000\n        /* \"#utility.yul\":3712:3713   */\n      0x00\n        /* \"#utility.yul\":3704:3710   */\n      dup3\n        /* \"#utility.yul\":3700:3714   */\n      add\n        /* \"#utility.yul\":3693:3743   */\n      mstore\n        /* \"#utility.yul\":3576:3750   */\n      pop\n      jump\t// out\n        /* \"#utility.yul\":3756:4122   */\n    tag_103:\n        /* \"#utility.yul\":3898:3901   */\n      0x00\n        /* \"#utility.yul\":3919:3986   */\n      tag_145\n        /* \"#utility.yul\":3983:3985   */\n      0x18\n        /* \"#utility.yul\":3978:3981   */\n      dup4\n        /* \"#utility.yul\":3919:3986   */\n      tag_97\n      jump\t// in\n    tag_145:\n        /* \"#utility.yul\":3912:3986   */\n      swap2\n      pop\n        /* \"#utility.yul\":3995:4088   */\n      tag_146\n        /* \"#utility.yul\":4084:4087   */\n      dup3\n        /* \"#utility.yul\":3995:4088   */\n      tag_102\n      jump\t// in\n    tag_146:\n        /* \"#utility.yul\":4113:4115   */\n      0x20\n        /* \"#utility.yul\":4108:4111   */\n      dup3\n        /* \"#utility.yul\":4104:4116   */\n      add\n        /* \"#utility.yul\":4097:4116   */\n      swap1\n      pop\n        /* \"#utility.yul\":3756:4122   */\n      swap2\n      swap1\n      pop\n      jump\t// out\n        /* \"#utility.yul\":4128:4547   */\n    tag_62:\n        /* \"#utility.yul\":4294:4298   */\n      0x00\n        /* \"#utility.yul\":4332:4334   */\n      0x20\n        /* \"#utility.yul\":4321:4330   */\n      dup3\n        /* \"#utility.yul\":4317:4335   */\n      add\n        /* \"#utility.yul\":4309:4335   */\n      swap1\n      pop\n        /* \"#utility.yul\":4381:4390   */\n      dup2\n        /* \"#utility.yul\":4375:4379   */\n      dup2\n        /* \"#utility.yul\":4371:4391   */\n      sub\n        /* \"#utility.yul\":4367:4368   */\n      0x00\n        /* \"#utility.yul\":4356:4365   */\n      dup4\n        /* \"#utility.yul\":4352:4369   */\n      add\n        /* \"#utility.yul\":4345:4392   */\n      mstore\n        /* \"#utility.yul\":4409:4540   */\n      tag_148\n        /* \"#utility.yul\":4535:4539   */\n      dup2\n        /* \"#utility.yul\":4409:4540   */\n      tag_103\n      jump\t// in\n    tag_148:\n        /* \"#utility.yul\":4401:4540   */\n      swap1\n      pop\n        /* \"#utility.yul\":4128:4547   */\n      swap2\n      swap1\n      pop\n      jump\t// out\n        /* \"#utility.yul\":4553:4726   */\n    tag_104:\n        /* \"#utility.yul\":4693:4718   */\n      0x4f6e6c7920636c69656e742063616e206465706f736974000000000000000000\n        /* \"#utility.yul\":4689:4690   */\n      0x00\n        /* \"#utility.yul\":4681:4687   */\n      dup3\n        /* \"#utility.yul\":4677:4691   */\n      add\n        /* \"#utility.yul\":4670:4719   */\n      mstore\n        /* \"#utility.yul\":4553:4726   */\n      pop\n      jump\t// out\n        /* \"#utility.yul\":4732:5098   */\n    tag_105:\n        /* \"#utility.yul\":4874:4877   */\n      0x00\n        /* \"#utility.yul\":4895:4962   */\n      tag_151\n        /* \"#utility.yul\":4959:4961   */\n      0x17\n        /* \"#utility.yul\":4954:4957   */\n      dup4\n        /* \"#utility.yul\":4895:4962   */\n      tag_97\n      jump\t// in\n    tag_151:\n        /* \"#utility.yul\":4888:4962   */\n      swap2\n      pop\n        /* \"#utility.yul\":4971:5064   */\n      tag_152\n        /* \"#utility.yul\":5060:5063   */\n      dup3\n        /* \"#utility.yul\":4971:5064   */\n      tag_104\n      jump\t// in\n    tag_152:\n        /* \"#utility.yul\":5089:5091   */\n      0x20\n        /* \"#utility.yul\":5084:5087   */\n      dup3\n        /* \"#utility.yul\":5080:5092   */\n      add\n        /* \"#utility.yul\":5073:5092   */\n      swap1\n      pop\n        /* \"#utility.yul\":4732:5098   */\n      swap2\n      swap1\n      pop\n      jump\t// out\n        /* \"#utility.yul\":5104:5523   */\n    tag_70:\n        /* \"#utility.yul\":5270:5274   */\n      0x00\n        /* \"#utility.yul\":5308:5310   */\n      0x20\n        /* \"#utility.yul\":5297:5306   */\n      dup3\n        /* \"#utility.yul\":5293:5311   */\n      add\n        /* \"#utility.yul\":5285:5311   */\n      swap1\n      pop\n        /* \"#utility.yul\":5357:5366   */\n      dup2\n        /* \"#utility.yul\":5351:5355   */\n      dup2\n        /* \"#utility.yul\":5347:5367   */\n      sub\n        /* \"#utility.yul\":5343:5344   */\n      0x00\n        /* \"#utility.yul\":5332:5341   */\n      dup4\n        /* \"#utility.yul\":5328:5345   */\n      add\n        /* \"#utility.yul\":5321:5368   */\n      mstore\n        /* \"#utility.yul\":5385:5516   */\n      tag_154\n        /* \"#utility.yul\":5511:5515   */\n      dup2\n        /* \"#utility.yul\":5385:5516   */\n      tag_105\n      jump\t// in\n    tag_154:\n        /* \"#utility.yul\":5377:5516   */\n      swap1\n      pop\n        /* \"#utility.yul\":5104:5523   */\n      swap2\n      swap1\n      pop\n      jump\t// out\n        /* \"#utility.yul\":5529:5696   */\n    tag_106:\n        /* \"#utility.yul\":5669:5688   */\n      0x416c7265616479206465706f7369746564000000000000000000000000000000\n        /* \"#utility.yul\":5665:5666   */\n      0x00\n        /* \"#utility.yul\":5657:5663   */\n      dup3\n        /* \"#utility.yul\":5653:5667   */\n      add\n        /* \"#utility.yul\":5646:5689   */\n      mstore\n        /* \"#utility.yul\":5529:5696   */\n      pop\n      jump\t// out\n        /* \"#utility.yul\":5702:6068   */\n    tag_107:\n        /* \"#utility.yul\":5844:5847   */\n      0x00\n        /* \"#utility.yul\":5865:5932   */\n      tag_157\n        /* \"#utility.yul\":5929:5931   */\n      0x11\n        /* \"#utility.yul\":5924:5927   */\n      dup4\n        /* \"#utility.yul\":5865:5932   */\n      tag_97\n      jump\t// in\n    tag_157:\n        /* \"#utility.yul\":5858:5932   */\n      swap2\n      pop\n        /* \"#utility.yul\":5941:6034   */\n      tag_158\n        /* \"#utility.yul\":6030:6033   */\n      dup3\n        /* \"#utility.yul\":5941:6034   */\n      tag_106\n      jump\t// in\n    tag_158:\n        /* \"#utility.yul\":6059:6061   */\n      0x20\n        /* \"#utility.yul\":6054:6057   */\n      dup3\n        /* \"#utility.yul\":6050:6062   */\n      add\n        /* \"#utility.yul\":6043:6062   */\n      swap1\n      pop\n        /* \"#utility.yul\":5702:6068   */\n      swap2\n      swap1\n      pop\n      jump\t// out\n        /* \"#utility.yul\":6074:6493   */\n    tag_73:\n        /* \"#utility.yul\":6240:6244   */\n      0x00\n        /* \"#utility.yul\":6278:6280   */\n      0x20\n        /* \"#utility.yul\":6267:6276   */\n      dup3\n        /* \"#utility.yul\":6263:6281   */\n      add\n        /* \"#utility.yul\":6255:6281   */\n      swap1\n      pop\n        /* \"#utility.yul\":6327:6336   */\n      dup2\n        /* \"#utility.yul\":6321:6325   */\n      dup2\n        /* \"#utility.yul\":6317:6337   */\n      sub\n        /* \"#utility.yul\":6313:6314   */\n      0x00\n        /* \"#utility.yul\":6302:6311   */\n      dup4\n        /* \"#utility.yul\":6298:6315   */\n      add\n        /* \"#utility.yul\":6291:6338   */\n      mstore\n        /* \"#utility.yul\":6355:6486   */\n      tag_160\n        /* \"#utility.yul\":6481:6485   */\n      dup2\n        /* \"#utility.yul\":6355:6486   */\n      tag_107\n      jump\t// in\n    tag_160:\n        /* \"#utility.yul\":6347:6486   */\n      swap1\n      pop\n        /* \"#utility.yul\":6074:6493   */\n      swap2\n      swap1\n      pop\n      jump\t// out\n        /* \"#utility.yul\":6499:6662   */\n    tag_108:\n        /* \"#utility.yul\":6639:6654   */\n      0x4d7573742073656e642045544800000000000000000000000000000000000000\n        /* \"#utility.yul\":6635:6636   */\n      0x00\n        /* \"#utility.yul\":6627:6633   */\n      dup3\n        /* \"#utility.yul\":6623:6637   */\n      add\n        /* \"#utility.yul\":6616:6655   */\n      mstore\n        /* \"#utility.yul\":6499:6662   */\n      pop\n      jump\t// out\n        /* \"#utility.yul\":6668:7034   */\n    tag_109:\n        /* \"#utility.yul\":6810:6813   */\n      0x00\n        /* \"#utility.yul\":6831:6898   */\n      tag_163\n        /* \"#utility.yul\":6895:6897   */\n      0x0d\n        /* \"#utility.yul\":6890:6893   */\n      dup4\n        /* \"#utility.yul\":6831:6898   */\n      tag_97\n      jump\t// in\n    tag_163:\n        /* \"#utility.yul\":6824:6898   */\n      swap2\n      pop\n        /* \"#utility.yul\":6907:7000   */\n      tag_164\n        /* \"#utility.yul\":6996:6999   */\n      dup3\n        /* \"#utility.yul\":6907:7000   */\n      tag_108\n      jump\t// in\n    tag_164:\n        /* \"#utility.yul\":7025:7027   */\n      0x20\n        /* \"#utility.yul\":7020:7023   */\n      dup3\n        /* \"#utility.yul\":7016:7028   */\n      add\n        /* \"#utility.yul\":7009:7028   */\n      swap1\n      pop\n        /* \"#utility.yul\":6668:7034   */\n      swap2\n      swap1\n      pop\n      jump\t// out\n        /* \"#utility.yul\":7040:7459   */\n    tag_76:\n        /* \"#utility.yul\":7206:7210   */\n      0x00\n        /* \"#utility.yul\":7244:7246   */\n      0x20\n        /* \"#utility.yul\":7233:7242   */\n      dup3\n        /* \"#utility.yul\":7229:7247   */\n      add\n        /* \"#utility.yul\":7221:7247   */\n      swap1\n      pop\n        /* \"#utility.yul\":7293:7302   */\n      dup2\n        /* \"#utility.yul\":7287:7291   */\n      dup2\n        /* \"#utility.yul\":7283:7303   */\n      sub\n        /* \"#utility.yul\":7279:7280   */\n      0x00\n        /* \"#utility.yul\":7268:7277   */\n      dup4\n        /* \"#utility.yul\":7264:7281   */\n      add\n        /* \"#utility.yul\":7257:7304   */\n      mstore\n        /* \"#utility.yul\":7321:7452   */\n      tag_166\n        /* \"#utility.yul\":7447:7451   */\n      dup2\n        /* \"#utility.yul\":7321:7452   */\n      tag_109\n      jump\t// in\n    tag_166:\n        /* \"#utility.yul\":7313:7452   */\n      swap1\n      pop\n        /* \"#utility.yul\":7040:7459   */\n      swap2\n      swap1\n      pop\n      jump\t// out\n        /* \"#utility.yul\":7465:7638   */\n    tag_110:\n        /* \"#utility.yul\":7605:7630   */\n      0x4f6e6c7920636c69656e742063616e2072656c65617365000000000000000000\n        /* \"#utility.yul\":7601:7602   */\n      0x00\n        /* \"#utility.yul\":7593:7599   */\n      dup3\n        /* \"#utility.yul\":7589:7603   */\n      add\n        /* \"#utility.yul\":7582:7631   */\n      mstore\n        /* \"#utility.yul\":7465:7638   */\n      pop\n      jump\t// out\n        /* \"#utility.yul\":7644:8010   */\n    tag_111:\n        /* \"#utility.yul\":7786:7789   */\n      0x00\n        /* \"#utility.yul\":7807:7874   */\n      tag_169\n        /* \"#utility.yul\":7871:7873   */\n      0x17\n        /* \"#utility.yul\":7866:7869   */\n      dup4\n        /* \"#utility.yul\":7807:7874   */\n      tag_97\n      jump\t// in\n    tag_169:\n        /* \"#utility.yul\":7800:7874   */\n      swap2\n      pop\n        /* \"#utility.yul\":7883:7976   */\n      tag_170\n        /* \"#utility.yul\":7972:7975   */\n      dup3\n        /* \"#utility.yul\":7883:7976   */\n      tag_110\n      jump\t// in\n    tag_170:\n        /* \"#utility.yul\":8001:8003   */\n      0x20\n        /* \"#utility.yul\":7996:7999   */\n      dup3\n        /* \"#utility.yul\":7992:8004   */\n      add\n        /* \"#utility.yul\":7985:8004   */\n      swap1\n      pop\n        /* \"#utility.yul\":7644:8010   */\n      swap2\n      swap1\n      pop\n      jump\t// out\n        /* \"#utility.yul\":8016:8435   */\n    tag_81:\n        /* \"#utility.yul\":8182:8186   */\n      0x00\n        /* \"#utility.yul\":8220:8222   */\n      0x20\n        /* \"#utility.yul\":8209:8218   */\n      dup3\n        /* \"#utility.yul\":8205:8223   */\n      add\n        /* \"#utility.yul\":8197:8223   */\n      swap1\n      pop\n        /* \"#utility.yul\":8269:8278   */\n      dup2\n        /* \"#utility.yul\":8263:8267   */\n      dup2\n        /* \"#utility.yul\":8259:8279   */\n      sub\n        /* \"#utility.yul\":8255:8256   */\n      0x00\n        /* \"#utility.yul\":8244:8253   */\n      dup4\n        /* \"#utility.yul\":8240:8257   */\n      add\n        /* \"#utility.yul\":8233:8280   */\n      mstore\n        /* \"#utility.yul\":8297:8428   */\n      tag_172\n        /* \"#utility.yul\":8423:8427   */\n      dup2\n        /* \"#utility.yul\":8297:8428   */\n      tag_111\n      jump\t// in\n    tag_172:\n        /* \"#utility.yul\":8289:8428   */\n      swap1\n      pop\n        /* \"#utility.yul\":8016:8435   */\n      swap2\n      swap1\n      pop\n      jump\t// out\n\n    auxdata: 0xa264697066735822122088c666c3f3f1db827f75fc4839c6363e7e8a0e2665338df72fe4c67a6e47bcdd64736f6c63430008140033\n}\n",
				"bytecode": {
					"linkReferences": {},
					"object": "608060405234801562000010575f80fd5b5060405162000ea438038062000ea4833981810160405281019062000036919062000192565b5f73ffffffffffffffffffffffffffffffffffffffff168173ffffffffffffffffffffffffffffffffffffffff1603620000a7576040517f08c379a00000000000000000000000000000000000000000000000000000000081526004016200009e9062000220565b60405180910390fd5b335f806101000a81548173ffffffffffffffffffffffffffffffffffffffff021916908373ffffffffffffffffffffffffffffffffffffffff1602179055508060015f6101000a81548173ffffffffffffffffffffffffffffffffffffffff021916908373ffffffffffffffffffffffffffffffffffffffff1602179055505062000240565b5f80fd5b5f73ffffffffffffffffffffffffffffffffffffffff82169050919050565b5f6200015c8262000131565b9050919050565b6200016e8162000150565b811462000179575f80fd5b50565b5f815190506200018c8162000163565b92915050565b5f60208284031215620001aa57620001a96200012d565b5b5f620001b9848285016200017c565b91505092915050565b5f82825260208201905092915050565b7f496e76616c696420736f6c696369746f722061646472657373000000000000005f82015250565b5f62000208601983620001c2565b91506200021582620001d2565b602082019050919050565b5f6020820190508181035f8301526200023981620001fa565b9050919050565b610c56806200024e5f395ff3fe608060405260043610610090575f3560e01c8063aa8c217c11610058578063aa8c217c14610152578063c5a4946e1461017c578063d0e30db0146101a6578063d277adfc146101b0578063eef49ee3146101c657610090565b8063109e94cf1461009457806312ddbf0e146100be57806312f53950146100d45780638b7afe2e146100fe5780639613252114610128575b5f80fd5b34801561009f575f80fd5b506100a86101f0565b6040516100b591906108bb565b60405180910390f35b3480156100c9575f80fd5b506100d2610213565b005b3480156100df575f80fd5b506100e861044a565b6040516100f591906108ee565b60405180910390f35b348015610109575f80fd5b5061011261045d565b60405161011f919061091f565b60405180910390f35b348015610133575f80fd5b5061013c610464565b60405161014991906108ee565b60405180910390f35b34801561015d575f80fd5b50610166610477565b604051610173919061091f565b60405180910390f35b348015610187575f80fd5b5061019061047d565b60405161019d91906108bb565b60405180910390f35b6101ae6104a2565b005b3480156101bb575f80fd5b506101c4610631565b005b3480156101d1575f80fd5b506101da61086a565b6040516101e791906108ee565b60405180910390f35b5f8054906101000a900473ffffffffffffffffffffffffffffffffffffffff1681565b60015f9054906101000a900473ffffffffffffffffffffffffffffffffffffffff1673ffffffffffffffffffffffffffffffffffffffff163373ffffffffffffffffffffffffffffffffffffffff16146102a2576040517f08c379a000000000000000000000000000000000000000000000000000000000815260040161029990610992565b60405180910390fd5b60035f9054906101000a900460ff166102f0576040517f08c379a00000000000000000000000000000000000000000000000000000000081526004016102e7906109fa565b60405180910390fd5b600360019054906101000a900460ff1615801561031a5750600360029054906101000a900460ff16155b610359576040517f08c379a000000000000000000000000000000000000000000000000000000000815260040161035090610a62565b60405180910390fd5b6001600360026101000a81548160ff0219169083151502179055505f8054906101000a900473ffffffffffffffffffffffffffffffffffffffff1673ffffffffffffffffffffffffffffffffffffffff167fd7dee2702d63ad89917b6a4da9981c90c4d24f8c2bdfd64c604ecae57d8d06516002546040516103db919061091f565b60405180910390a25f8054906101000a900473ffffffffffffffffffffffffffffffffffffffff1673ffffffffffffffffffffffffffffffffffffffff166108fc60025490811502906040515f60405180830381858888f19350505050158015610447573d5f803e3d5ffd5b50565b600360029054906101000a900460ff1681565b5f47905090565b600360019054906101000a900460ff1681565b60025481565b60015f9054906101000a900473ffffffffffffffffffffffffffffffffffffffff1681565b5f8054906101000a900473ffffffffffffffffffffffffffffffffffffffff1673ffffffffffffffffffffffffffffffffffffffff163373ffffffffffffffffffffffffffffffffffffffff161461052f576040517f08c379a000000000000000000000000000000000000000000000000000000000815260040161052690610aca565b60405180910390fd5b60035f9054906101000a900460ff161561057e576040517f08c379a000000000000000000000000000000000000000000000000000000000815260040161057590610b32565b60405180910390fd5b5f34116105c0576040517f08c379a00000000000000000000000000000000000000000000000000000000081526004016105b790610b9a565b60405180910390fd5b34600281905550600160035f6101000a81548160ff0219169083151502179055503373ffffffffffffffffffffffffffffffffffffffff167f2da466a7b24304f47e87fa2e1e5a81b9831ce54fec19055ce277ca2f39ba42c434604051610627919061091f565b60405180910390a2565b5f8054906101000a900473ffffffffffffffffffffffffffffffffffffffff1673ffffffffffffffffffffffffffffffffffffffff163373ffffffffffffffffffffffffffffffffffffffff16146106be576040517f08c379a00000000000000000000000000000000000000000000000000000000081526004016106b590610c02565b60405180910390fd5b60035f9054906101000a900460ff1661070c576040517f08c379a0000000000000000000000000000000000000000000000000000000008152600401610703906109fa565b60405180910390fd5b600360019054906101000a900460ff161580156107365750600360029054906101000a900460ff16155b610775576040517f08c379a000000000000000000000000000000000000000000000000000000000815260040161076c90610a62565b60405180910390fd5b6001600360016101000a81548160ff02191690831515021790555060015f9054906101000a900473ffffffffffffffffffffffffffffffffffffffff1673ffffffffffffffffffffffffffffffffffffffff167fb21fb52d5749b80f3182f8c6992236b5e5576681880914484d7f4c9b062e619e6002546040516107f9919061091f565b60405180910390a260015f9054906101000a900473ffffffffffffffffffffffffffffffffffffffff1673ffffffffffffffffffffffffffffffffffffffff166108fc60025490811502906040515f60405180830381858888f19350505050158015610867573d5f803e3d5ffd5b50565b60035f9054906101000a900460ff1681565b5f73ffffffffffffffffffffffffffffffffffffffff82169050919050565b5f6108a58261087c565b9050919050565b6108b58161089b565b82525050565b5f6020820190506108ce5f8301846108ac565b92915050565b5f8115159050919050565b6108e8816108d4565b82525050565b5f6020820190506109015f8301846108df565b92915050565b5f819050919050565b61091981610907565b82525050565b5f6020820190506109325f830184610910565b92915050565b5f82825260208201905092915050565b7f4f6e6c7920736f6c696369746f722063616e20726566756e64000000000000005f82015250565b5f61097c601983610938565b915061098782610948565b602082019050919050565b5f6020820190508181035f8301526109a981610970565b9050919050565b7f4e6f206465706f736974206d61646500000000000000000000000000000000005f82015250565b5f6109e4600f83610938565b91506109ef826109b0565b602082019050919050565b5f6020820190508181035f830152610a11816109d8565b9050919050565b7f457363726f7720616c726561647920636f6d706c6574656400000000000000005f82015250565b5f610a4c601883610938565b9150610a5782610a18565b602082019050919050565b5f6020820190508181035f830152610a7981610a40565b9050919050565b7f4f6e6c7920636c69656e742063616e206465706f7369740000000000000000005f82015250565b5f610ab4601783610938565b9150610abf82610a80565b602082019050919050565b5f6020820190508181035f830152610ae181610aa8565b9050919050565b7f416c7265616479206465706f73697465640000000000000000000000000000005f82015250565b5f610b1c601183610938565b9150610b2782610ae8565b602082019050919050565b5f6020820190508181035f830152610b4981610b10565b9050919050565b7f4d7573742073656e6420455448000000000000000000000000000000000000005f82015250565b5f610b84600d83610938565b9150610b8f82610b50565b602082019050919050565b5f6020820190508181035f830152610bb181610b78565b9050919050565b7f4f6e6c7920636c69656e742063616e2072656c656173650000000000000000005f82015250565b5f610bec601783610938565b9150610bf782610bb8565b602082019050919050565b5f6020820190508181035f830152610c1981610be0565b905091905056fea264697066735822122088c666c3f3f1db827f75fc4839c6363e7e8a0e2665338df72fe4c67a6e47bcdd64736f6c63430008140033",
					"opcodes": "PUSH1 0x80 PUSH1 0x40 MSTORE CALLVALUE DUP1 ISZERO PUSH3 0x10 JUMPI PUSH0 DUP1 REVERT JUMPDEST POP PUSH1 0x40 MLOAD PUSH3 0xEA4 CODESIZE SUB DUP1 PUSH3 0xEA4 DUP4 CODECOPY DUP2 DUP2 ADD PUSH1 0x40 MSTORE DUP2 ADD SWAP1 PUSH3 0x36 SWAP2 SWAP1 PUSH3 0x192 JUMP JUMPDEST PUSH0 PUSH20 0xFFFFFFFFFFFFFFFFFFFFFFFFFFFFFFFFFFFFFFFF AND DUP2 PUSH20 0xFFFFFFFFFFFFFFFFFFFFFFFFFFFFFFFFFFFFFFFF AND SUB PUSH3 0xA7 JUMPI PUSH1 0x40 MLOAD PUSH32 0x8C379A000000000000000000000000000000000000000000000000000000000 DUP2 MSTORE PUSH1 0x4 ADD PUSH3 0x9E SWAP1 PUSH3 0x220 JUMP JUMPDEST PUSH1 0x40 MLOAD DUP1 SWAP2 SUB SWAP1 REVERT JUMPDEST CALLER PUSH0 DUP1 PUSH2 0x100 EXP DUP2 SLOAD DUP2 PUSH20 0xFFFFFFFFFFFFFFFFFFFFFFFFFFFFFFFFFFFFFFFF MUL NOT AND SWAP1 DUP4 PUSH20 0xFFFFFFFFFFFFFFFFFFFFFFFFFFFFFFFFFFFFFFFF AND MUL OR SWAP1 SSTORE POP DUP1 PUSH1 0x1 PUSH0 PUSH2 0x100 EXP DUP2 SLOAD DUP2 PUSH20 0xFFFFFFFFFFFFFFFFFFFFFFFFFFFFFFFFFFFFFFFF MUL NOT AND SWAP1 DUP4 PUSH20 0xFFFFFFFFFFFFFFFFFFFFFFFFFFFFFFFFFFFFFFFF AND MUL OR SWAP1 SSTORE POP POP PUSH3 0x240 JUMP JUMPDEST PUSH0 DUP1 REVERT JUMPDEST PUSH0 PUSH20 0xFFFFFFFFFFFFFFFFFFFFFFFFFFFFFFFFFFFFFFFF DUP3 AND SWAP1 POP SWAP2 SWAP1 POP JUMP JUMPDEST PUSH0 PUSH3 0x15C DUP3 PUSH3 0x131 JUMP JUMPDEST SWAP1 POP SWAP2 SWAP1 POP JUMP JUMPDEST PUSH3 0x16E DUP2 PUSH3 0x150 JUMP JUMPDEST DUP2 EQ PUSH3 0x179 JUMPI PUSH0 DUP1 REVERT JUMPDEST POP JUMP JUMPDEST PUSH0 DUP2 MLOAD SWAP1 POP PUSH3 0x18C DUP2 PUSH3 0x163 JUMP JUMPDEST SWAP3 SWAP2 POP POP JUMP JUMPDEST PUSH0 PUSH1 0x20 DUP3 DUP5 SUB SLT ISZERO PUSH3 0x1AA JUMPI PUSH3 0x1A9 PUSH3 0x12D JUMP JUMPDEST JUMPDEST PUSH0 PUSH3 0x1B9 DUP5 DUP3 DUP6 ADD PUSH3 0x17C JUMP JUMPDEST SWAP2 POP POP SWAP3 SWAP2 POP POP JUMP JUMPDEST PUSH0 DUP3 DUP3 MSTORE PUSH1 0x20 DUP3 ADD SWAP1 POP SWAP3 SWAP2 POP POP JUMP JUMPDEST PUSH32 0x496E76616C696420736F6C696369746F72206164647265737300000000000000 PUSH0 DUP3 ADD MSTORE POP JUMP JUMPDEST PUSH0 PUSH3 0x208 PUSH1 0x19 DUP4 PUSH3 0x1C2 JUMP JUMPDEST SWAP2 POP PUSH3 0x215 DUP3 PUSH3 0x1D2 JUMP JUMPDEST PUSH1 0x20 DUP3 ADD SWAP1 POP SWAP2 SWAP1 POP JUMP JUMPDEST PUSH0 PUSH1 0x20 DUP3 ADD SWAP1 POP DUP2 DUP2 SUB PUSH0 DUP4 ADD MSTORE PUSH3 0x239 DUP2 PUSH3 0x1FA JUMP JUMPDEST SWAP1 POP SWAP2 SWAP1 POP JUMP JUMPDEST PUSH2 0xC56 DUP1 PUSH3 0x24E PUSH0 CODECOPY PUSH0 RETURN INVALID PUSH1 0x80 PUSH1 0x40 MSTORE PUSH1 0x4 CALLDATASIZE LT PUSH2 0x90 JUMPI PUSH0 CALLDATALOAD PUSH1 0xE0 SHR DUP1 PUSH4 0xAA8C217C GT PUSH2 0x58 JUMPI DUP1 PUSH4 0xAA8C217C EQ PUSH2 0x152 JUMPI DUP1 PUSH4 0xC5A4946E EQ PUSH2 0x17C JUMPI DUP1 PUSH4 0xD0E30DB0 EQ PUSH2 0x1A6 JUMPI DUP1 PUSH4 0xD277ADFC EQ PUSH2 0x1B0 JUMPI DUP1 PUSH4 0xEEF49EE3 EQ PUSH2 0x1C6 JUMPI PUSH2 0x90 JUMP JUMPDEST DUP1 PUSH4 0x109E94CF EQ PUSH2 0x94 JUMPI DUP1 PUSH4 0x12DDBF0E EQ PUSH2 0xBE JUMPI DUP1 PUSH4 0x12F53950 EQ PUSH2 0xD4 JUMPI DUP1 PUSH4 0x8B7AFE2E EQ PUSH2 0xFE JUMPI DUP1 PUSH4 0x96132521 EQ PUSH2 0x128 JUMPI JUMPDEST PUSH0 DUP1 REVERT JUMPDEST CALLVALUE DUP1 ISZERO PUSH2 0x9F JUMPI PUSH0 DUP1 REVERT JUMPDEST POP PUSH2 0xA8 PUSH2 0x1F0 JUMP JUMPDEST PUSH1 0x40 MLOAD PUSH2 0xB5 SWAP2 SWAP1 PUSH2 0x8BB JUMP JUMPDEST PUSH1 0x40 MLOAD DUP1 SWAP2 SUB SWAP1 RETURN JUMPDEST CALLVALUE DUP1 ISZERO PUSH2 0xC9 JUMPI PUSH0 DUP1 REVERT JUMPDEST POP PUSH2 0xD2 PUSH2 0x213 JUMP JUMPDEST STOP JUMPDEST CALLVALUE DUP1 ISZERO PUSH2 0xDF JUMPI PUSH0 DUP1 REVERT JUMPDEST POP PUSH2 0xE8 PUSH2 0x44A JUMP JUMPDEST PUSH1 0x40 MLOAD PUSH2 0xF5 SWAP2 SWAP1 PUSH2 0x8EE JUMP JUMPDEST PUSH1 0x40 MLOAD DUP1 SWAP2 SUB SWAP1 RETURN JUMPDEST CALLVALUE DUP1 ISZERO PUSH2 0x109 JUMPI PUSH0 DUP1 REVERT JUMPDEST POP PUSH2 0x112 PUSH2 0x45D JUMP JUMPDEST PUSH1 0x40 MLOAD PUSH2 0x11F SWAP2 SWAP1 PUSH2 0x91F JUMP JUMPDEST PUSH1 0x40 MLOAD DUP1 SWAP2 SUB SWAP1 RETURN JUMPDEST CALLVALUE DUP1 ISZERO PUSH2 0x133 JUMPI PUSH0 DUP1 REVERT JUMPDEST POP PUSH2 0x13C PUSH2 0x464 JUMP JUMPDEST PUSH1 0x40 MLOAD PUSH2 0x149 SWAP2 SWAP1 PUSH2 0x8EE JUMP JUMPDEST PUSH1 0x40 MLOAD DUP1 SWAP2 SUB SWAP1 RETURN JUMPDEST CALLVALUE DUP1 ISZERO PUSH2 0x15D JUMPI PUSH0 DUP1 REVERT JUMPDEST POP PUSH2 0x166 PUSH2 0x477 JUMP JUMPDEST PUSH1 0x40 MLOAD PUSH2 0x173 SWAP2 SWAP1 PUSH2 0x91F JUMP JUMPDEST PUSH1 0x40 MLOAD DUP1 SWAP2 SUB SWAP1 RETURN JUMPDEST CALLVALUE DUP1 ISZERO PUSH2 0x187 JUMPI PUSH0 DUP1 REVERT JUMPDEST POP PUSH2 0x190 PUSH2 0x47D JUMP JUMPDEST PUSH1 0x40 MLOAD PUSH2 0x19D SWAP2 SWAP1 PUSH2 0x8BB JUMP JUMPDEST PUSH1 0x40 MLOAD DUP1 SWAP2 SUB SWAP1 RETURN JUMPDEST PUSH2 0x1AE PUSH2 0x4A2 JUMP JUMPDEST STOP JUMPDEST CALLVALUE DUP1 ISZERO PUSH2 0x1BB JUMPI PUSH0 DUP1 REVERT JUMPDEST POP PUSH2 0x1C4 PUSH2 0x631 JUMP JUMPDEST STOP JUMPDEST CALLVALUE DUP1 ISZERO PUSH2 0x1D1 JUMPI PUSH0 DUP1 REVERT JUMPDEST POP PUSH2 0x1DA PUSH2 0x86A JUMP JUMPDEST PUSH1 0x40 MLOAD PUSH2 0x1E7 SWAP2 SWAP1 PUSH2 0x8EE JUMP JUMPDEST PUSH1 0x40 MLOAD DUP1 SWAP2 SUB SWAP1 RETURN JUMPDEST PUSH0 DUP1 SLOAD SWAP1 PUSH2 0x100 EXP SWAP1 DIV PUSH20 0xFFFFFFFFFFFFFFFFFFFFFFFFFFFFFFFFFFFFFFFF AND DUP2 JUMP JUMPDEST PUSH1 0x1 PUSH0 SWAP1 SLOAD SWAP1 PUSH2 0x100 EXP SWAP1 DIV PUSH20 0xFFFFFFFFFFFFFFFFFFFFFFFFFFFFFFFFFFFFFFFF AND PUSH20 0xFFFFFFFFFFFFFFFFFFFFFFFFFFFFFFFFFFFFFFFF AND CALLER PUSH20 0xFFFFFFFFFFFFFFFFFFFFFFFFFFFFFFFFFFFFFFFF AND EQ PUSH2 0x2A2 JUMPI PUSH1 0x40 MLOAD PUSH32 0x8C379A000000000000000000000000000000000000000000000000000000000 DUP2 MSTORE PUSH1 0x4 ADD PUSH2 0x299 SWAP1 PUSH2 0x992 JUMP JUMPDEST PUSH1 0x40 MLOAD DUP1 SWAP2 SUB SWAP1 REVERT JUMPDEST PUSH1 0x3 PUSH0 SWAP1 SLOAD SWAP1 PUSH2 0x100 EXP SWAP1 DIV PUSH1 0xFF AND PUSH2 0x2F0 JUMPI PUSH1 0x40 MLOAD PUSH32 0x8C379A000000000000000000000000000000000000000000000000000000000 DUP2 MSTORE PUSH1 0x4 ADD PUSH2 0x2E7 SWAP1 PUSH2 0x9FA JUMP JUMPDEST PUSH1 0x40 MLOAD DUP1 SWAP2 SUB SWAP1 REVERT JUMPDEST PUSH1 0x3 PUSH1 0x1 SWAP1 SLOAD SWAP1 PUSH2 0x100 EXP SWAP1 DIV PUSH1 0xFF AND ISZERO DUP1 ISZERO PUSH2 0x31A JUMPI POP PUSH1 0x3 PUSH1 0x2 SWAP1 SLOAD SWAP1 PUSH2 0x100 EXP SWAP1 DIV PUSH1 0xFF AND ISZERO JUMPDEST PUSH2 0x359 JUMPI PUSH1 0x40 MLOAD PUSH32 0x8C379A000000000000000000000000000000000000000000000000000000000 DUP2 MSTORE PUSH1 0x4 ADD PUSH2 0x350 SWAP1 PUSH2 0xA62 JUMP JUMPDEST PUSH1 0x40 MLOAD DUP1 SWAP2 SUB SWAP1 REVERT JUMPDEST PUSH1 0x1 PUSH1 0x3 PUSH1 0x2 PUSH2 0x100 EXP DUP2 SLOAD DUP2 PUSH1 0xFF MUL NOT AND SWAP1 DUP4 ISZERO ISZERO MUL OR SWAP1 SSTORE POP PUSH0 DUP1 SLOAD SWAP1 PUSH2 0x100 EXP SWAP1 DIV PUSH20 0xFFFFFFFFFFFFFFFFFFFFFFFFFFFFFFFFFFFFFFFF AND PUSH20 0xFFFFFFFFFFFFFFFFFFFFFFFFFFFFFFFFFFFFFFFF AND PUSH32 0xD7DEE2702D63AD89917B6A4DA9981C90C4D24F8C2BDFD64C604ECAE57D8D0651 PUSH1 0x2 SLOAD PUSH1 0x40 MLOAD PUSH2 0x3DB SWAP2 SWAP1 PUSH2 0x91F JUMP JUMPDEST PUSH1 0x40 MLOAD DUP1 SWAP2 SUB SWAP1 LOG2 PUSH0 DUP1 SLOAD SWAP1 PUSH2 0x100 EXP SWAP1 DIV PUSH20 0xFFFFFFFFFFFFFFFFFFFFFFFFFFFFFFFFFFFFFFFF AND PUSH20 0xFFFFFFFFFFFFFFFFFFFFFFFFFFFFFFFFFFFFFFFF AND PUSH2 0x8FC PUSH1 0x2 SLOAD SWAP1 DUP2 ISZERO MUL SWAP1 PUSH1 0x40 MLOAD PUSH0 PUSH1 0x40 MLOAD DUP1 DUP4 SUB DUP2 DUP6 DUP9 DUP9 CALL SWAP4 POP POP POP POP ISZERO DUP1 ISZERO PUSH2 0x447 JUMPI RETURNDATASIZE PUSH0 DUP1 RETURNDATACOPY RETURNDATASIZE PUSH0 REVERT JUMPDEST POP JUMP JUMPDEST PUSH1 0x3 PUSH1 0x2 SWAP1 SLOAD SWAP1 PUSH2 0x100 EXP SWAP1 DIV PUSH1 0xFF AND DUP2 JUMP JUMPDEST PUSH0 SELFBALANCE SWAP1 POP SWAP1 JUMP JUMPDEST PUSH1 0x3 PUSH1 0x1 SWAP1 SLOAD SWAP1 PUSH2 0x100 EXP SWAP1 DIV PUSH1 0xFF AND DUP2 JUMP JUMPDEST PUSH1 0x2 SLOAD DUP2 JUMP JUMPDEST PUSH1 0x1 PUSH0 SWAP1 SLOAD SWAP1 PUSH2 0x100 EXP SWAP1 DIV PUSH20 0xFFFFFFFFFFFFFFFFFFFFFFFFFFFFFFFFFFFFFFFF AND DUP2 JUMP JUMPDEST PUSH0 DUP1 SLOAD SWAP1 PUSH2 0x100 EXP SWAP1 DIV PUSH20 0xFFFFFFFFFFFFFFFFFFFFFFFFFFFFFFFFFFFFFFFF AND PUSH20 0xFFFFFFFFFFFFFFFFFFFFFFFFFFFFFFFFFFFFFFFF AND CALLER PUSH20 0xFFFFFFFFFFFFFFFFFFFFFFFFFFFFFFFFFFFFFFFF AND EQ PUSH2 0x52F JUMPI PUSH1 0x40 MLOAD PUSH32 0x8C379A000000000000000000000000000000000000000000000000000000000 DUP2 MSTORE PUSH1 0x4 ADD PUSH2 0x526 SWAP1 PUSH2 0xACA JUMP JUMPDEST PUSH1 0x40 MLOAD DUP1 SWAP2 SUB SWAP1 REVERT JUMPDEST PUSH1 0x3 PUSH0 SWAP1 SLOAD SWAP1 PUSH2 0x100 EXP SWAP1 DIV PUSH1 0xFF AND ISZERO PUSH2 0x57E JUMPI PUSH1 0x40 MLOAD PUSH32 0x8C379A000000000000000000000000000000000000000000000000000000000 DUP2 MSTORE PUSH1 0x4 ADD PUSH2 0x575 SWAP1 PUSH2 0xB32 JUMP JUMPDEST PUSH1 0x40 MLOAD DUP1 SWAP2 SUB SWAP1 REVERT JUMPDEST PUSH0 CALLVALUE GT PUSH2 0x5C0 JUMPI PUSH1 0x40 MLOAD PUSH32 0x8C379A000000000000000000000000000000000000000000000000000000000 DUP2 MSTORE PUSH1 0x4 ADD PUSH2 0x5B7 SWAP1 PUSH2 0xB9A JUMP JUMPDEST PUSH1 0x40 MLOAD DUP1 SWAP2 SUB SWAP1 REVERT JUMPDEST CALLVALUE PUSH1 0x2 DUP2 SWAP1 SSTORE POP PUSH1 0x1 PUSH1 0x3 PUSH0 PUSH2 0x100 EXP DUP2 SLOAD DUP2 PUSH1 0xFF MUL NOT AND SWAP1 DUP4 ISZERO ISZERO MUL OR SWAP1 SSTORE POP CALLER PUSH20 0xFFFFFFFFFFFFFFFFFFFFFFFFFFFFFFFFFFFFFFFF AND PUSH32 0x2DA466A7B24304F47E87FA2E1E5A81B9831CE54FEC19055CE277CA2F39BA42C4 CALLVALUE PUSH1 0x40 MLOAD PUSH2 0x627 SWAP2 SWAP1 PUSH2 0x91F JUMP JUMPDEST PUSH1 0x40 MLOAD DUP1 SWAP2 SUB SWAP1 LOG2 JUMP JUMPDEST PUSH0 DUP1 SLOAD SWAP1 PUSH2 0x100 EXP SWAP1 DIV PUSH20 0xFFFFFFFFFFFFFFFFFFFFFFFFFFFFFFFFFFFFFFFF AND PUSH20 0xFFFFFFFFFFFFFFFFFFFFFFFFFFFFFFFFFFFFFFFF AND CALLER PUSH20 0xFFFFFFFFFFFFFFFFFFFFFFFFFFFFFFFFFFFFFFFF AND EQ PUSH2 0x6BE JUMPI PUSH1 0x40 MLOAD PUSH32 0x8C379A000000000000000000000000000000000000000000000000000000000 DUP2 MSTORE PUSH1 0x4 ADD PUSH2 0x6B5 SWAP1 PUSH2 0xC02 JUMP JUMPDEST PUSH1 0x40 MLOAD DUP1 SWAP2 SUB SWAP1 REVERT JUMPDEST PUSH1 0x3 PUSH0 SWAP1 SLOAD SWAP1 PUSH2 0x100 EXP SWAP1 DIV PUSH1 0xFF AND PUSH2 0x70C JUMPI PUSH1 0x40 MLOAD PUSH32 0x8C379A000000000000000000000000000000000000000000000000000000000 DUP2 MSTORE PUSH1 0x4 ADD PUSH2 0x703 SWAP1 PUSH2 0x9FA JUMP JUMPDEST PUSH1 0x40 MLOAD DUP1 SWAP2 SUB SWAP1 REVERT JUMPDEST PUSH1 0x3 PUSH1 0x1 SWAP1 SLOAD SWAP1 PUSH2 0x100 EXP SWAP1 DIV PUSH1 0xFF AND ISZERO DUP1 ISZERO PUSH2 0x736 JUMPI POP PUSH1 0x3 PUSH1 0x2 SWAP1 SLOAD SWAP1 PUSH2 0x100 EXP SWAP1 DIV PUSH1 0xFF AND ISZERO JUMPDEST PUSH2 0x775 JUMPI PUSH1 0x40 MLOAD PUSH32 0x8C379A000000000000000000000000000000000000000000000000000000000 DUP2 MSTORE PUSH1 0x4 ADD PUSH2 0x76C SWAP1 PUSH2 0xA62 JUMP JUMPDEST PUSH1 0x40 MLOAD DUP1 SWAP2 SUB SWAP1 REVERT JUMPDEST PUSH1 0x1 PUSH1 0x3 PUSH1 0x1 PUSH2 0x100 EXP DUP2 SLOAD DUP2 PUSH1 0xFF MUL NOT AND SWAP1 DUP4 ISZERO ISZERO MUL OR SWAP1 SSTORE POP PUSH1 0x1 PUSH0 SWAP1 SLOAD SWAP1 PUSH2 0x100 EXP SWAP1 DIV PUSH20 0xFFFFFFFFFFFFFFFFFFFFFFFFFFFFFFFFFFFFFFFF AND PUSH20 0xFFFFFFFFFFFFFFFFFFFFFFFFFFFFFFFFFFFFFFFF AND PUSH32 0xB21FB52D5749B80F3182F8C6992236B5E5576681880914484D7F4C9B062E619E PUSH1 0x2 SLOAD PUSH1 0x40 MLOAD PUSH2 0x7F9 SWAP2 SWAP1 PUSH2 0x91F JUMP JUMPDEST PUSH1 0x40 MLOAD DUP1 SWAP2 SUB SWAP1 LOG2 PUSH1 0x1 PUSH0 SWAP1 SLOAD SWAP1 PUSH2 0x100 EXP SWAP1 DIV PUSH20 0xFFFFFFFFFFFFFFFFFFFFFFFFFFFFFFFFFFFFFFFF AND PUSH20 0xFFFFFFFFFFFFFFFFFFFFFFFFFFFFFFFFFFFFFFFF AND PUSH2 0x8FC PUSH1 0x2 SLOAD SWAP1 DUP2 ISZERO MUL SWAP1 PUSH1 0x40 MLOAD PUSH0 PUSH1 0x40 MLOAD DUP1 DUP4 SUB DUP2 DUP6 DUP9 DUP9 CALL SWAP4 POP POP POP POP ISZERO DUP1 ISZERO PUSH2 0x867 JUMPI RETURNDATASIZE PUSH0 DUP1 RETURNDATACOPY RETURNDATASIZE PUSH0 REVERT JUMPDEST POP JUMP JUMPDEST PUSH1 0x3 PUSH0 SWAP1 SLOAD SWAP1 PUSH2 0x100 EXP SWAP1 DIV PUSH1 0xFF AND DUP2 JUMP JUMPDEST PUSH0 PUSH20 0xFFFFFFFFFFFFFFFFFFFFFFFFFFFFFFFFFFFFFFFF DUP3 AND SWAP1 POP SWAP2 SWAP1 POP JUMP JUMPDEST PUSH0 PUSH2 0x8A5 DUP3 PUSH2 0x87C JUMP JUMPDEST SWAP1 POP SWAP2 SWAP1 POP JUMP JUMPDEST PUSH2 0x8B5 DUP2 PUSH2 0x89B JUMP JUMPDEST DUP3 MSTORE POP POP JUMP JUMPDEST PUSH0 PUSH1 0x20 DUP3 ADD SWAP1 POP PUSH2 0x8CE PUSH0 DUP4 ADD DUP5 PUSH2 0x8AC JUMP JUMPDEST SWAP3 SWAP2 POP POP JUMP JUMPDEST PUSH0 DUP2 ISZERO ISZERO SWAP1 POP SWAP2 SWAP1 POP JUMP JUMPDEST PUSH2 0x8E8 DUP2 PUSH2 0x8D4 JUMP JUMPDEST DUP3 MSTORE POP POP JUMP JUMPDEST PUSH0 PUSH1 0x20 DUP3 ADD SWAP1 POP PUSH2 0x901 PUSH0 DUP4 ADD DUP5 PUSH2 0x8DF JUMP JUMPDEST SWAP3 SWAP2 POP POP JUMP JUMPDEST PUSH0 DUP2 SWAP1 POP SWAP2 SWAP1 POP JUMP JUMPDEST PUSH2 0x919 DUP2 PUSH2 0x907 JUMP JUMPDEST DUP3 MSTORE POP POP JUMP JUMPDEST PUSH0 PUSH1 0x20 DUP3 ADD SWAP1 POP PUSH2 0x932 PUSH0 DUP4 ADD DUP5 PUSH2 0x910 JUMP JUMPDEST SWAP3 SWAP2 POP POP JUMP JUMPDEST PUSH0 DUP3 DUP3 MSTORE PUSH1 0x20 DUP3 ADD SWAP1 POP SWAP3 SWAP2 POP POP JUMP JUMPDEST PUSH32 0x4F6E6C7920736F6C696369746F722063616E20726566756E6400000000000000 PUSH0 DUP3 ADD MSTORE POP JUMP JUMPDEST PUSH0 PUSH2 0x97C PUSH1 0x19 DUP4 PUSH2 0x938 JUMP JUMPDEST SWAP2 POP PUSH2 0x987 DUP3 PUSH2 0x948 JUMP JUMPDEST PUSH1 0x20 DUP3 ADD SWAP1 POP SWAP2 SWAP1 POP JUMP JUMPDEST PUSH0 PUSH1 0x20 DUP3 ADD SWAP1 POP DUP2 DUP2 SUB PUSH0 DUP4 ADD MSTORE PUSH2 0x9A9 DUP2 PUSH2 0x970 JUMP JUMPDEST SWAP1 POP SWAP2 SWAP1 POP JUMP JUMPDEST PUSH32 0x4E6F206465706F736974206D6164650000000000000000000000000000000000 PUSH0 DUP3 ADD MSTORE POP JUMP JUMPDEST PUSH0 PUSH2 0x9E4 PUSH1 0xF DUP4 PUSH2 0x938 JUMP JUMPDEST SWAP2 POP PUSH2 0x9EF DUP3 PUSH2 0x9B0 JUMP JUMPDEST PUSH1 0x20 DUP3 ADD SWAP1 POP SWAP2 SWAP1 POP JUMP JUMPDEST PUSH0 PUSH1 0x20 DUP3 ADD SWAP1 POP DUP2 DUP2 SUB PUSH0 DUP4 ADD MSTORE PUSH2 0xA11 DUP2 PUSH2 0x9D8 JUMP JUMPDEST SWAP1 POP SWAP2 SWAP1 POP JUMP JUMPDEST PUSH32 0x457363726F7720616C726561647920636F6D706C657465640000000000000000 PUSH0 DUP3 ADD MSTORE POP JUMP JUMPDEST PUSH0 PUSH2 0xA4C PUSH1 0x18 DUP4 PUSH2 0x938 JUMP JUMPDEST SWAP2 POP PUSH2 0xA57 DUP3 PUSH2 0xA18 JUMP JUMPDEST PUSH1 0x20 DUP3 ADD SWAP1 POP SWAP2 SWAP1 POP JUMP JUMPDEST PUSH0 PUSH1 0x20 DUP3 ADD SWAP1 POP DUP2 DUP2 SUB PUSH0 DUP4 ADD MSTORE PUSH2 0xA79 DUP2 PUSH2 0xA40 JUMP JUMPDEST SWAP1 POP SWAP2 SWAP1 POP JUMP JUMPDEST PUSH32 0x4F6E6C7920636C69656E742063616E206465706F736974000000000000000000 PUSH0 DUP3 ADD MSTORE POP JUMP JUMPDEST PUSH0 PUSH2 0xAB4 PUSH1 0x17 DUP4 PUSH2 0x938 JUMP JUMPDEST SWAP2 POP PUSH2 0xABF DUP3 PUSH2 0xA80 JUMP JUMPDEST PUSH1 0x20 DUP3 ADD SWAP1 POP SWAP2 SWAP1 POP JUMP JUMPDEST PUSH0 PUSH1 0x20 DUP3 ADD SWAP1 POP DUP2 DUP2 SUB PUSH0 DUP4 ADD MSTORE PUSH2 0xAE1 DUP2 PUSH2 0xAA8 JUMP JUMPDEST SWAP1 POP SWAP2 SWAP1 POP JUMP JUMPDEST PUSH32 0x416C7265616479206465706F7369746564000000000000000000000000000000 PUSH0 DUP3 ADD MSTORE POP JUMP JUMPDEST PUSH0 PUSH2 0xB1C PUSH1 0x11 DUP4 PUSH2 0x938 JUMP JUMPDEST SWAP2 POP PUSH2 0xB27 DUP3 PUSH2 0xAE8 JUMP JUMPDEST PUSH1 0x20 DUP3 ADD SWAP1 POP SWAP2 SWAP1 POP JUMP JUMPDEST PUSH0 PUSH1 0x20 DUP3 ADD SWAP1 POP DUP2 DUP2 SUB PUSH0 DUP4 ADD MSTORE PUSH2 0xB49 DUP2 PUSH2 0xB10 JUMP JUMPDEST SWAP1 POP SWAP2 SWAP1 POP JUMP JUMPDEST PUSH32 0x4D7573742073656E642045544800000000000000000000000000000000000000 PUSH0 DUP3 ADD MSTORE POP JUMP JUMPDEST PUSH0 PUSH2 0xB84 PUSH1 0xD DUP4 PUSH2 0x938 JUMP JUMPDEST SWAP2 POP PUSH2 0xB8F DUP3 PUSH2 0xB50 JUMP JUMPDEST PUSH1 0x20 DUP3 ADD SWAP1 POP SWAP2 SWAP1 POP JUMP JUMPDEST PUSH0 PUSH1 0x20 DUP3 ADD SWAP1 POP DUP2 DUP2 SUB PUSH0 DUP4 ADD MSTORE PUSH2 0xBB1 DUP2 PUSH2 0xB78 JUMP JUMPDEST SWAP1 POP SWAP2 SWAP1 POP JUMP JUMPDEST PUSH32 0x4F6E6C7920636C69656E742063616E2072656C65617365000000000000000000 PUSH0 DUP3 ADD MSTORE POP JUMP JUMPDEST PUSH0 PUSH2 0xBEC PUSH1 0x17 DUP4 PUSH2 0x938 JUMP JUMPDEST SWAP2 POP PUSH2 0xBF7 DUP3 PUSH2 0xBB8 JUMP JUMPDEST PUSH1 0x20 DUP3 ADD SWAP1 POP SWAP2 SWAP1 POP JUMP JUMPDEST PUSH0 PUSH1 0x20 DUP3 ADD SWAP1 POP DUP2 DUP2 SUB PUSH0 DUP4 ADD MSTORE PUSH2 0xC19 DUP2 PUSH2 0xBE0 JUMP JUMPDEST SWAP1 POP SWAP2 SWAP1 POP JUMP INVALID LOG2 PUSH5 0x6970667358 0x22 SLT KECCAK256 DUP9 0xC6 PUSH7 0xC3F3F1DB827F75 0xFC BASEFEE CODECOPY 0xC6 CALLDATASIZE RETURNDATACOPY PUSH31 0x8A0E2665338DF72FE4C67A6E47BCDD64736F6C634300081400330000000000 "
				},
				"gasEstimates": {
					"creation": {
						"codeDepositCost": "631600",
						"executionCost": "infinite",
						"totalCost": "infinite"
					},
					"external": {
						"amount()": "2425",
						"client()": "2506",
						"contractBalance()": "401",
						"deposit()": "52454",
						"deposited()": "2554",
						"refundToClient()": "infinite",
						"refunded()": "2562",
						"releaseToSolicitor()": "infinite",
						"released()": "2606",
						"solicitor()": "2530"
					}
				},
				"methodIdentifiers": {
					"amount()": "aa8c217c",
					"client()": "109e94cf",
					"contractBalance()": "8b7afe2e",
					"deposit()": "d0e30db0",
					"deposited()": "eef49ee3",
					"refundToClient()": "12ddbf0e",
					"refunded()": "12f53950",
					"releaseToSolicitor()": "d277adfc",
					"released()": "96132521",
					"solicitor()": "c5a4946e"
				}
			},
			"storageLayout": {
				"storage": [
					{
						"astId": 3,
						"contract": ".git/LegalEscrow.sol:LegalEscrow",
						"label": "client",
						"offset": 0,
						"slot": "0",
						"type": "t_address"
					},
					{
						"astId": 5,
						"contract": ".git/LegalEscrow.sol:LegalEscrow",
						"label": "solicitor",
						"offset": 0,
						"slot": "1",
						"type": "t_address"
					},
					{
						"astId": 7,
						"contract": ".git/LegalEscrow.sol:LegalEscrow",
						"label": "amount",
						"offset": 0,
						"slot": "2",
						"type": "t_uint256"
					},
					{
						"astId": 9,
						"contract": ".git/LegalEscrow.sol:LegalEscrow",
						"label": "deposited",
						"offset": 0,
						"slot": "3",
						"type": "t_bool"
					},
					{
						"astId": 11,
						"contract": ".git/LegalEscrow.sol:LegalEscrow",
						"label": "released",
						"offset": 1,
						"slot": "3",
						"type": "t_bool"
					},
					{
						"astId": 13,
						"contract": ".git/LegalEscrow.sol:LegalEscrow",
						"label": "refunded",
						"offset": 2,
						"slot": "3",
						"type": "t_bool"
					}
				],
				"types": {
					"t_address": {
						"encoding": "inplace",
						"label": "address",
						"numberOfBytes": "20"
					},
					"t_bool": {
						"encoding": "inplace",
						"label": "bool",
						"numberOfBytes": "1"
					},
					"t_uint256": {
						"encoding": "inplace",
						"label": "uint256",
						"numberOfBytes": "32"
					}
				}
			},
			"userdoc": {
				"kind": "user",
				"methods": {},
				"version": 1
			}
		}
	}
}